{
	"contracts/ArifBank.sol": {
		"ArifBank": {
			"abi": [
				{
					"inputs": [],
					"name": "addMoneyToContract",
					"outputs": [],
					"stateMutability": "payable",
					"type": "function"
				},
				{
					"inputs": [],
					"name": "deposit",
					"outputs": [],
					"stateMutability": "payable",
					"type": "function"
				},
				{
					"inputs": [
						{
							"internalType": "address",
							"name": "_userAddress",
							"type": "address"
						}
					],
					"name": "getBalance",
					"outputs": [
						{
							"internalType": "uint256",
							"name": "",
							"type": "uint256"
						}
					],
					"stateMutability": "view",
					"type": "function"
				},
				{
					"inputs": [],
					"name": "getTotalBankBalance",
					"outputs": [
						{
							"internalType": "uint256",
							"name": "",
							"type": "uint256"
						}
					],
					"stateMutability": "view",
					"type": "function"
				},
				{
					"inputs": [],
					"name": "withdrawal",
					"outputs": [],
					"stateMutability": "payable",
					"type": "function"
				}
			],
			"devdoc": {
				"kind": "dev",
				"methods": {},
				"version": 1
			},
			"evm": {
				"assembly": "    /* \"contracts/ArifBank.sol\":60:1793  contract ArifBank {... */\n  mstore(0x40, 0x80)\n    /* \"contracts/ArifBank.sol\":136:137  0 */\n  0x00\n    /* \"contracts/ArifBank.sol\":112:137  uint totalBankBalance = 0 */\n  dup1\n  sstore\n    /* \"contracts/ArifBank.sol\":60:1793  contract ArifBank {... */\n  callvalue\n  dup1\n  iszero\n  tag_1\n  jumpi\n  0x00\n  dup1\n  revert\ntag_1:\n  pop\n  dataSize(sub_0)\n  dup1\n  dataOffset(sub_0)\n  0x00\n  codecopy\n  0x00\n  return\nstop\n\nsub_0: assembly {\n        /* \"contracts/ArifBank.sol\":60:1793  contract ArifBank {... */\n      mstore(0x40, 0x80)\n      jumpi(tag_1, lt(calldatasize, 0x04))\n      shr(0xe0, calldataload(0x00))\n      dup1\n      0x1834ef4e\n      eq\n      tag_2\n      jumpi\n      dup1\n      0x38a2ca40\n      eq\n      tag_3\n      jumpi\n      dup1\n      0xd0e30db0\n      eq\n      tag_4\n      jumpi\n      dup1\n      0xd4e93292\n      eq\n      tag_5\n      jumpi\n      dup1\n      0xf8b2cb4f\n      eq\n      tag_6\n      jumpi\n    tag_1:\n      0x00\n      dup1\n      revert\n        /* \"contracts/ArifBank.sol\":1697:1790  function addMoneyToContract() public payable {... */\n    tag_2:\n      tag_7\n      tag_8\n      jump\t// in\n    tag_7:\n      stop\n        /* \"contracts/ArifBank.sol\":191:291  function getTotalBankBalance() public  view returns(uint) {... */\n    tag_3:\n      callvalue\n      dup1\n      iszero\n      tag_9\n      jumpi\n      0x00\n      dup1\n      revert\n    tag_9:\n      pop\n      tag_10\n      tag_11\n      jump\t// in\n    tag_10:\n      mload(0x40)\n      tag_12\n      swap2\n      swap1\n      tag_13\n      jump\t// in\n    tag_12:\n      mload(0x40)\n      dup1\n      swap2\n      sub\n      swap1\n      return\n        /* \"contracts/ArifBank.sol\":513:677  function deposit() public  payable {... */\n    tag_4:\n      tag_14\n      tag_15\n      jump\t// in\n    tag_14:\n      stop\n        /* \"contracts/ArifBank.sol\":1107:1640  function withdrawal() public payable {... */\n    tag_5:\n      tag_16\n      tag_17\n      jump\t// in\n    tag_16:\n      stop\n        /* \"contracts/ArifBank.sol\":716:1065  function getBalance(address _userAddress) public view returns(uint) {... */\n    tag_6:\n      callvalue\n      dup1\n      iszero\n      tag_18\n      jumpi\n      0x00\n      dup1\n      revert\n    tag_18:\n      pop\n      tag_19\n      0x04\n      dup1\n      calldatasize\n      sub\n      dup2\n      add\n      swap1\n      tag_20\n      swap2\n      swap1\n      tag_21\n      jump\t// in\n    tag_20:\n      tag_22\n      jump\t// in\n    tag_19:\n      mload(0x40)\n      tag_23\n      swap2\n      swap1\n      tag_13\n      jump\t// in\n    tag_23:\n      mload(0x40)\n      dup1\n      swap2\n      sub\n      swap1\n      return\n        /* \"contracts/ArifBank.sol\":1697:1790  function addMoneyToContract() public payable {... */\n    tag_8:\n        /* \"contracts/ArifBank.sol\":1773:1782  msg.value */\n      callvalue\n        /* \"contracts/ArifBank.sol\":1753:1769  totalBankBalance */\n      0x00\n      dup1\n        /* \"contracts/ArifBank.sol\":1753:1782  totalBankBalance += msg.value */\n      dup3\n      dup3\n      sload\n      tag_25\n      swap2\n      swap1\n      tag_26\n      jump\t// in\n    tag_25:\n      swap3\n      pop\n      pop\n      dup2\n      swap1\n      sstore\n      pop\n        /* \"contracts/ArifBank.sol\":1697:1790  function addMoneyToContract() public payable {... */\n      jump\t// out\n        /* \"contracts/ArifBank.sol\":191:291  function getTotalBankBalance() public  view returns(uint) {... */\n    tag_11:\n        /* \"contracts/ArifBank.sol\":243:247  uint */\n      0x00\n        /* \"contracts/ArifBank.sol\":267:283  totalBankBalance */\n      dup1\n      sload\n        /* \"contracts/ArifBank.sol\":260:283  return totalBankBalance */\n      swap1\n      pop\n        /* \"contracts/ArifBank.sol\":191:291  function getTotalBankBalance() public  view returns(uint) {... */\n      swap1\n      jump\t// out\n        /* \"contracts/ArifBank.sol\":513:677  function deposit() public  payable {... */\n    tag_15:\n        /* \"contracts/ArifBank.sol\":581:590  msg.value */\n      callvalue\n        /* \"contracts/ArifBank.sol\":558:566  balances */\n      0x01\n        /* \"contracts/ArifBank.sol\":558:578  balances[msg.sender] */\n      0x00\n        /* \"contracts/ArifBank.sol\":567:577  msg.sender */\n      caller\n        /* \"contracts/ArifBank.sol\":558:578  balances[msg.sender] */\n      0xffffffffffffffffffffffffffffffffffffffff\n      and\n      0xffffffffffffffffffffffffffffffffffffffff\n      and\n      dup2\n      mstore\n      0x20\n      add\n      swap1\n      dup2\n      mstore\n      0x20\n      add\n      0x00\n      keccak256\n        /* \"contracts/ArifBank.sol\":558:590  balances[msg.sender] = msg.value */\n      dup2\n      swap1\n      sstore\n      pop\n        /* \"contracts/ArifBank.sol\":659:668  msg.value */\n      callvalue\n        /* \"contracts/ArifBank.sol\":639:655  totalBankBalance */\n      0x00\n      dup1\n        /* \"contracts/ArifBank.sol\":639:668  totalBankBalance += msg.value */\n      dup3\n      dup3\n      sload\n      tag_29\n      swap2\n      swap1\n      tag_26\n      jump\t// in\n    tag_29:\n      swap3\n      pop\n      pop\n      dup2\n      swap1\n      sstore\n      pop\n        /* \"contracts/ArifBank.sol\":513:677  function deposit() public  payable {... */\n      jump\t// out\n        /* \"contracts/ArifBank.sol\":1107:1640  function withdrawal() public payable {... */\n    tag_17:\n        /* \"contracts/ArifBank.sol\":1198:1224  address payable withdrawTo */\n      0x00\n        /* \"contracts/ArifBank.sol\":1235:1245  msg.sender */\n      caller\n        /* \"contracts/ArifBank.sol\":1198:1246  address payable withdrawTo = payable(msg.sender) */\n      swap1\n      pop\n        /* \"contracts/ArifBank.sol\":1298:1319  uint amountToTransfer */\n      0x00\n        /* \"contracts/ArifBank.sol\":1322:1344  getBalance(msg.sender) */\n      tag_31\n        /* \"contracts/ArifBank.sol\":1333:1343  msg.sender */\n      caller\n        /* \"contracts/ArifBank.sol\":1322:1332  getBalance */\n      tag_22\n        /* \"contracts/ArifBank.sol\":1322:1344  getBalance(msg.sender) */\n      jump\t// in\n    tag_31:\n        /* \"contracts/ArifBank.sol\":1298:1344  uint amountToTransfer = getBalance(msg.sender) */\n      swap1\n      pop\n        /* \"contracts/ArifBank.sol\":1396:1406  withdrawTo */\n      dup2\n        /* \"contracts/ArifBank.sol\":1396:1415  withdrawTo.transfer */\n      0xffffffffffffffffffffffffffffffffffffffff\n      and\n        /* \"contracts/ArifBank.sol\":1396:1433  withdrawTo.transfer(amountToTransfer) */\n      0x08fc\n        /* \"contracts/ArifBank.sol\":1416:1432  amountToTransfer */\n      dup3\n        /* \"contracts/ArifBank.sol\":1396:1433  withdrawTo.transfer(amountToTransfer) */\n      swap1\n      dup2\n      iszero\n      mul\n      swap1\n      mload(0x40)\n      0x00\n      mload(0x40)\n      dup1\n      dup4\n      sub\n      dup2\n      dup6\n      dup9\n      dup9\n      call\n      swap4\n      pop\n      pop\n      pop\n      pop\n      iszero\n      dup1\n      iszero\n      tag_33\n      jumpi\n      returndatasize\n      0x00\n      dup1\n      returndatacopy\n      revert(0x00, returndatasize)\n    tag_33:\n      pop\n        /* \"contracts/ArifBank.sol\":1547:1563  amountToTransfer */\n      dup1\n        /* \"contracts/ArifBank.sol\":1528:1544  totalBankBalance */\n      sload(0x00)\n        /* \"contracts/ArifBank.sol\":1528:1563  totalBankBalance - amountToTransfer */\n      tag_34\n      swap2\n      swap1\n      tag_35\n      jump\t// in\n    tag_34:\n        /* \"contracts/ArifBank.sol\":1509:1525  totalBankBalance */\n      0x00\n        /* \"contracts/ArifBank.sol\":1509:1563  totalBankBalance = totalBankBalance - amountToTransfer */\n      dup2\n      swap1\n      sstore\n      pop\n        /* \"contracts/ArifBank.sol\":1631:1632  0 */\n      0x00\n        /* \"contracts/ArifBank.sol\":1608:1616  balances */\n      0x01\n        /* \"contracts/ArifBank.sol\":1608:1628  balances[msg.sender] */\n      0x00\n        /* \"contracts/ArifBank.sol\":1617:1627  msg.sender */\n      caller\n        /* \"contracts/ArifBank.sol\":1608:1628  balances[msg.sender] */\n      0xffffffffffffffffffffffffffffffffffffffff\n      and\n      0xffffffffffffffffffffffffffffffffffffffff\n      and\n      dup2\n      mstore\n      0x20\n      add\n      swap1\n      dup2\n      mstore\n      0x20\n      add\n      0x00\n      keccak256\n        /* \"contracts/ArifBank.sol\":1608:1632  balances[msg.sender] = 0 */\n      dup2\n      swap1\n      sstore\n      pop\n        /* \"contracts/ArifBank.sol\":1144:1640  {... */\n      pop\n      pop\n        /* \"contracts/ArifBank.sol\":1107:1640  function withdrawal() public payable {... */\n      jump\t// out\n        /* \"contracts/ArifBank.sol\":716:1065  function getBalance(address _userAddress) public view returns(uint) {... */\n    tag_22:\n        /* \"contracts/ArifBank.sol\":778:782  uint */\n      0x00\n        /* \"contracts/ArifBank.sol\":795:809  uint principal */\n      dup1\n        /* \"contracts/ArifBank.sol\":812:820  balances */\n      0x01\n        /* \"contracts/ArifBank.sol\":812:834  balances[_userAddress] */\n      0x00\n        /* \"contracts/ArifBank.sol\":821:833  _userAddress */\n      dup5\n        /* \"contracts/ArifBank.sol\":812:834  balances[_userAddress] */\n      0xffffffffffffffffffffffffffffffffffffffff\n      and\n      0xffffffffffffffffffffffffffffffffffffffff\n      and\n      dup2\n      mstore\n      0x20\n      add\n      swap1\n      dup2\n      mstore\n      0x20\n      add\n      0x00\n      keccak256\n      sload\n        /* \"contracts/ArifBank.sol\":795:834  uint principal = balances[_userAddress] */\n      swap1\n      pop\n        /* \"contracts/ArifBank.sol\":845:861  uint timeElapsed */\n      0x00\n        /* \"contracts/ArifBank.sol\":882:898  depositTimeStamp */\n      0x02\n        /* \"contracts/ArifBank.sol\":882:912  depositTimeStamp[_userAddress] */\n      0x00\n        /* \"contracts/ArifBank.sol\":899:911  _userAddress */\n      dup6\n        /* \"contracts/ArifBank.sol\":882:912  depositTimeStamp[_userAddress] */\n      0xffffffffffffffffffffffffffffffffffffffff\n      and\n      0xffffffffffffffffffffffffffffffffffffffff\n      and\n      dup2\n      mstore\n      0x20\n      add\n      swap1\n      dup2\n      mstore\n      0x20\n      add\n      0x00\n      keccak256\n      sload\n        /* \"contracts/ArifBank.sol\":864:879  block.timestamp */\n      timestamp\n        /* \"contracts/ArifBank.sol\":864:912  block.timestamp - depositTimeStamp[_userAddress] */\n      tag_37\n      swap2\n      swap1\n      tag_35\n      jump\t// in\n    tag_37:\n        /* \"contracts/ArifBank.sol\":845:912  uint timeElapsed = block.timestamp - depositTimeStamp[_userAddress] */\n      swap1\n      pop\n        /* \"contracts/ArifBank.sol\":1055:1056  1 */\n      0x01\n        /* \"contracts/ArifBank.sol\":1026:1050  100 * 365 * 24 * 60 * 60 */\n      0xbbf81e00\n        /* \"contracts/ArifBank.sol\":1010:1021  timeElapsed */\n      dup3\n        /* \"contracts/ArifBank.sol\":1006:1007  7 */\n      0x07\n        /* \"contracts/ArifBank.sol\":994:1003  principal */\n      dup6\n        /* \"contracts/ArifBank.sol\":994:1007  principal * 7 */\n      tag_38\n      swap2\n      swap1\n      tag_39\n      jump\t// in\n    tag_38:\n        /* \"contracts/ArifBank.sol\":994:1021  principal * 7 * timeElapsed */\n      tag_40\n      swap2\n      swap1\n      tag_39\n      jump\t// in\n    tag_40:\n        /* \"contracts/ArifBank.sol\":993:1051  (principal * 7 * timeElapsed) / (100 * 365 * 24 * 60 * 60) */\n      tag_41\n      swap2\n      swap1\n      tag_42\n      jump\t// in\n    tag_41:\n        /* \"contracts/ArifBank.sol\":976:985  principal */\n      dup4\n        /* \"contracts/ArifBank.sol\":976:1052  principal + uint((principal * 7 * timeElapsed) / (100 * 365 * 24 * 60 * 60)) */\n      tag_43\n      swap2\n      swap1\n      tag_26\n      jump\t// in\n    tag_43:\n        /* \"contracts/ArifBank.sol\":976:1056  principal + uint((principal * 7 * timeElapsed) / (100 * 365 * 24 * 60 * 60)) + 1 */\n      tag_44\n      swap2\n      swap1\n      tag_26\n      jump\t// in\n    tag_44:\n        /* \"contracts/ArifBank.sol\":969:1056  return principal + uint((principal * 7 * timeElapsed) / (100 * 365 * 24 * 60 * 60)) + 1 */\n      swap3\n      pop\n      pop\n      pop\n        /* \"contracts/ArifBank.sol\":716:1065  function getBalance(address _userAddress) public view returns(uint) {... */\n      swap2\n      swap1\n      pop\n      jump\t// out\n        /* \"#utility.yul\":7:84   */\n    tag_45:\n        /* \"#utility.yul\":44:51   */\n      0x00\n        /* \"#utility.yul\":73:78   */\n      dup2\n        /* \"#utility.yul\":62:78   */\n      swap1\n      pop\n        /* \"#utility.yul\":7:84   */\n      swap2\n      swap1\n      pop\n      jump\t// out\n        /* \"#utility.yul\":90:208   */\n    tag_46:\n        /* \"#utility.yul\":177:201   */\n      tag_59\n        /* \"#utility.yul\":195:200   */\n      dup2\n        /* \"#utility.yul\":177:201   */\n      tag_45\n      jump\t// in\n    tag_59:\n        /* \"#utility.yul\":172:175   */\n      dup3\n        /* \"#utility.yul\":165:202   */\n      mstore\n        /* \"#utility.yul\":90:208   */\n      pop\n      pop\n      jump\t// out\n        /* \"#utility.yul\":214:436   */\n    tag_13:\n        /* \"#utility.yul\":307:311   */\n      0x00\n        /* \"#utility.yul\":345:347   */\n      0x20\n        /* \"#utility.yul\":334:343   */\n      dup3\n        /* \"#utility.yul\":330:348   */\n      add\n        /* \"#utility.yul\":322:348   */\n      swap1\n      pop\n        /* \"#utility.yul\":358:429   */\n      tag_61\n        /* \"#utility.yul\":426:427   */\n      0x00\n        /* \"#utility.yul\":415:424   */\n      dup4\n        /* \"#utility.yul\":411:428   */\n      add\n        /* \"#utility.yul\":402:408   */\n      dup5\n        /* \"#utility.yul\":358:429   */\n      tag_46\n      jump\t// in\n    tag_61:\n        /* \"#utility.yul\":214:436   */\n      swap3\n      swap2\n      pop\n      pop\n      jump\t// out\n        /* \"#utility.yul\":523:640   */\n    tag_48:\n        /* \"#utility.yul\":632:633   */\n      0x00\n        /* \"#utility.yul\":629:630   */\n      dup1\n        /* \"#utility.yul\":622:634   */\n      revert\n        /* \"#utility.yul\":769:895   */\n    tag_50:\n        /* \"#utility.yul\":806:813   */\n      0x00\n        /* \"#utility.yul\":846:888   */\n      0xffffffffffffffffffffffffffffffffffffffff\n        /* \"#utility.yul\":839:844   */\n      dup3\n        /* \"#utility.yul\":835:889   */\n      and\n        /* \"#utility.yul\":824:889   */\n      swap1\n      pop\n        /* \"#utility.yul\":769:895   */\n      swap2\n      swap1\n      pop\n      jump\t// out\n        /* \"#utility.yul\":901:997   */\n    tag_51:\n        /* \"#utility.yul\":938:945   */\n      0x00\n        /* \"#utility.yul\":967:991   */\n      tag_67\n        /* \"#utility.yul\":985:990   */\n      dup3\n        /* \"#utility.yul\":967:991   */\n      tag_50\n      jump\t// in\n    tag_67:\n        /* \"#utility.yul\":956:991   */\n      swap1\n      pop\n        /* \"#utility.yul\":901:997   */\n      swap2\n      swap1\n      pop\n      jump\t// out\n        /* \"#utility.yul\":1003:1125   */\n    tag_52:\n        /* \"#utility.yul\":1076:1100   */\n      tag_69\n        /* \"#utility.yul\":1094:1099   */\n      dup2\n        /* \"#utility.yul\":1076:1100   */\n      tag_51\n      jump\t// in\n    tag_69:\n        /* \"#utility.yul\":1069:1074   */\n      dup2\n        /* \"#utility.yul\":1066:1101   */\n      eq\n        /* \"#utility.yul\":1056:1119   */\n      tag_70\n      jumpi\n        /* \"#utility.yul\":1115:1116   */\n      0x00\n        /* \"#utility.yul\":1112:1113   */\n      dup1\n        /* \"#utility.yul\":1105:1117   */\n      revert\n        /* \"#utility.yul\":1056:1119   */\n    tag_70:\n        /* \"#utility.yul\":1003:1125   */\n      pop\n      jump\t// out\n        /* \"#utility.yul\":1131:1270   */\n    tag_53:\n        /* \"#utility.yul\":1177:1182   */\n      0x00\n        /* \"#utility.yul\":1215:1221   */\n      dup2\n        /* \"#utility.yul\":1202:1222   */\n      calldataload\n        /* \"#utility.yul\":1193:1222   */\n      swap1\n      pop\n        /* \"#utility.yul\":1231:1264   */\n      tag_72\n        /* \"#utility.yul\":1258:1263   */\n      dup2\n        /* \"#utility.yul\":1231:1264   */\n      tag_52\n      jump\t// in\n    tag_72:\n        /* \"#utility.yul\":1131:1270   */\n      swap3\n      swap2\n      pop\n      pop\n      jump\t// out\n        /* \"#utility.yul\":1276:1605   */\n    tag_21:\n        /* \"#utility.yul\":1335:1341   */\n      0x00\n        /* \"#utility.yul\":1384:1386   */\n      0x20\n        /* \"#utility.yul\":1372:1381   */\n      dup3\n        /* \"#utility.yul\":1363:1370   */\n      dup5\n        /* \"#utility.yul\":1359:1382   */\n      sub\n        /* \"#utility.yul\":1355:1387   */\n      slt\n        /* \"#utility.yul\":1352:1471   */\n      iszero\n      tag_74\n      jumpi\n        /* \"#utility.yul\":1390:1469   */\n      tag_75\n      tag_48\n      jump\t// in\n    tag_75:\n        /* \"#utility.yul\":1352:1471   */\n    tag_74:\n        /* \"#utility.yul\":1510:1511   */\n      0x00\n        /* \"#utility.yul\":1535:1588   */\n      tag_76\n        /* \"#utility.yul\":1580:1587   */\n      dup5\n        /* \"#utility.yul\":1571:1577   */\n      dup3\n        /* \"#utility.yul\":1560:1569   */\n      dup6\n        /* \"#utility.yul\":1556:1578   */\n      add\n        /* \"#utility.yul\":1535:1588   */\n      tag_53\n      jump\t// in\n    tag_76:\n        /* \"#utility.yul\":1525:1588   */\n      swap2\n      pop\n        /* \"#utility.yul\":1481:1598   */\n      pop\n        /* \"#utility.yul\":1276:1605   */\n      swap3\n      swap2\n      pop\n      pop\n      jump\t// out\n        /* \"#utility.yul\":1611:1791   */\n    tag_54:\n        /* \"#utility.yul\":1659:1736   */\n      0x4e487b7100000000000000000000000000000000000000000000000000000000\n        /* \"#utility.yul\":1656:1657   */\n      0x00\n        /* \"#utility.yul\":1649:1737   */\n      mstore\n        /* \"#utility.yul\":1756:1760   */\n      0x11\n        /* \"#utility.yul\":1753:1754   */\n      0x04\n        /* \"#utility.yul\":1746:1761   */\n      mstore\n        /* \"#utility.yul\":1780:1784   */\n      0x24\n        /* \"#utility.yul\":1777:1778   */\n      0x00\n        /* \"#utility.yul\":1770:1785   */\n      revert\n        /* \"#utility.yul\":1797:1988   */\n    tag_26:\n        /* \"#utility.yul\":1837:1840   */\n      0x00\n        /* \"#utility.yul\":1856:1876   */\n      tag_79\n        /* \"#utility.yul\":1874:1875   */\n      dup3\n        /* \"#utility.yul\":1856:1876   */\n      tag_45\n      jump\t// in\n    tag_79:\n        /* \"#utility.yul\":1851:1876   */\n      swap2\n      pop\n        /* \"#utility.yul\":1890:1910   */\n      tag_80\n        /* \"#utility.yul\":1908:1909   */\n      dup4\n        /* \"#utility.yul\":1890:1910   */\n      tag_45\n      jump\t// in\n    tag_80:\n        /* \"#utility.yul\":1885:1910   */\n      swap3\n      pop\n        /* \"#utility.yul\":1933:1934   */\n      dup3\n        /* \"#utility.yul\":1930:1931   */\n      dup3\n        /* \"#utility.yul\":1926:1935   */\n      add\n        /* \"#utility.yul\":1919:1935   */\n      swap1\n      pop\n        /* \"#utility.yul\":1954:1957   */\n      dup1\n        /* \"#utility.yul\":1951:1952   */\n      dup3\n        /* \"#utility.yul\":1948:1958   */\n      gt\n        /* \"#utility.yul\":1945:1981   */\n      iszero\n      tag_81\n      jumpi\n        /* \"#utility.yul\":1961:1979   */\n      tag_82\n      tag_54\n      jump\t// in\n    tag_82:\n        /* \"#utility.yul\":1945:1981   */\n    tag_81:\n        /* \"#utility.yul\":1797:1988   */\n      swap3\n      swap2\n      pop\n      pop\n      jump\t// out\n        /* \"#utility.yul\":1994:2188   */\n    tag_35:\n        /* \"#utility.yul\":2034:2038   */\n      0x00\n        /* \"#utility.yul\":2054:2074   */\n      tag_84\n        /* \"#utility.yul\":2072:2073   */\n      dup3\n        /* \"#utility.yul\":2054:2074   */\n      tag_45\n      jump\t// in\n    tag_84:\n        /* \"#utility.yul\":2049:2074   */\n      swap2\n      pop\n        /* \"#utility.yul\":2088:2108   */\n      tag_85\n        /* \"#utility.yul\":2106:2107   */\n      dup4\n        /* \"#utility.yul\":2088:2108   */\n      tag_45\n      jump\t// in\n    tag_85:\n        /* \"#utility.yul\":2083:2108   */\n      swap3\n      pop\n        /* \"#utility.yul\":2132:2133   */\n      dup3\n        /* \"#utility.yul\":2129:2130   */\n      dup3\n        /* \"#utility.yul\":2125:2134   */\n      sub\n        /* \"#utility.yul\":2117:2134   */\n      swap1\n      pop\n        /* \"#utility.yul\":2156:2157   */\n      dup2\n        /* \"#utility.yul\":2150:2154   */\n      dup2\n        /* \"#utility.yul\":2147:2158   */\n      gt\n        /* \"#utility.yul\":2144:2181   */\n      iszero\n      tag_86\n      jumpi\n        /* \"#utility.yul\":2161:2179   */\n      tag_87\n      tag_54\n      jump\t// in\n    tag_87:\n        /* \"#utility.yul\":2144:2181   */\n    tag_86:\n        /* \"#utility.yul\":1994:2188   */\n      swap3\n      swap2\n      pop\n      pop\n      jump\t// out\n        /* \"#utility.yul\":2194:2604   */\n    tag_39:\n        /* \"#utility.yul\":2234:2241   */\n      0x00\n        /* \"#utility.yul\":2257:2277   */\n      tag_89\n        /* \"#utility.yul\":2275:2276   */\n      dup3\n        /* \"#utility.yul\":2257:2277   */\n      tag_45\n      jump\t// in\n    tag_89:\n        /* \"#utility.yul\":2252:2277   */\n      swap2\n      pop\n        /* \"#utility.yul\":2291:2311   */\n      tag_90\n        /* \"#utility.yul\":2309:2310   */\n      dup4\n        /* \"#utility.yul\":2291:2311   */\n      tag_45\n      jump\t// in\n    tag_90:\n        /* \"#utility.yul\":2286:2311   */\n      swap3\n      pop\n        /* \"#utility.yul\":2346:2347   */\n      dup3\n        /* \"#utility.yul\":2343:2344   */\n      dup3\n        /* \"#utility.yul\":2339:2348   */\n      mul\n        /* \"#utility.yul\":2368:2398   */\n      tag_91\n        /* \"#utility.yul\":2386:2397   */\n      dup2\n        /* \"#utility.yul\":2368:2398   */\n      tag_45\n      jump\t// in\n    tag_91:\n        /* \"#utility.yul\":2357:2398   */\n      swap2\n      pop\n        /* \"#utility.yul\":2547:2548   */\n      dup3\n        /* \"#utility.yul\":2538:2545   */\n      dup3\n        /* \"#utility.yul\":2534:2549   */\n      div\n        /* \"#utility.yul\":2531:2532   */\n      dup5\n        /* \"#utility.yul\":2528:2550   */\n      eq\n        /* \"#utility.yul\":2508:2509   */\n      dup4\n        /* \"#utility.yul\":2501:2510   */\n      iszero\n        /* \"#utility.yul\":2481:2564   */\n      or\n        /* \"#utility.yul\":2458:2597   */\n      tag_92\n      jumpi\n        /* \"#utility.yul\":2577:2595   */\n      tag_93\n      tag_54\n      jump\t// in\n    tag_93:\n        /* \"#utility.yul\":2458:2597   */\n    tag_92:\n        /* \"#utility.yul\":2242:2604   */\n      pop\n        /* \"#utility.yul\":2194:2604   */\n      swap3\n      swap2\n      pop\n      pop\n      jump\t// out\n        /* \"#utility.yul\":2610:2790   */\n    tag_55:\n        /* \"#utility.yul\":2658:2735   */\n      0x4e487b7100000000000000000000000000000000000000000000000000000000\n        /* \"#utility.yul\":2655:2656   */\n      0x00\n        /* \"#utility.yul\":2648:2736   */\n      mstore\n        /* \"#utility.yul\":2755:2759   */\n      0x12\n        /* \"#utility.yul\":2752:2753   */\n      0x04\n        /* \"#utility.yul\":2745:2760   */\n      mstore\n        /* \"#utility.yul\":2779:2783   */\n      0x24\n        /* \"#utility.yul\":2776:2777   */\n      0x00\n        /* \"#utility.yul\":2769:2784   */\n      revert\n        /* \"#utility.yul\":2796:2981   */\n    tag_42:\n        /* \"#utility.yul\":2836:2837   */\n      0x00\n        /* \"#utility.yul\":2853:2873   */\n      tag_96\n        /* \"#utility.yul\":2871:2872   */\n      dup3\n        /* \"#utility.yul\":2853:2873   */\n      tag_45\n      jump\t// in\n    tag_96:\n        /* \"#utility.yul\":2848:2873   */\n      swap2\n      pop\n        /* \"#utility.yul\":2887:2907   */\n      tag_97\n        /* \"#utility.yul\":2905:2906   */\n      dup4\n        /* \"#utility.yul\":2887:2907   */\n      tag_45\n      jump\t// in\n    tag_97:\n        /* \"#utility.yul\":2882:2907   */\n      swap3\n      pop\n        /* \"#utility.yul\":2926:2927   */\n      dup3\n        /* \"#utility.yul\":2916:2951   */\n      tag_98\n      jumpi\n        /* \"#utility.yul\":2931:2949   */\n      tag_99\n      tag_55\n      jump\t// in\n    tag_99:\n        /* \"#utility.yul\":2916:2951   */\n    tag_98:\n        /* \"#utility.yul\":2973:2974   */\n      dup3\n        /* \"#utility.yul\":2970:2971   */\n      dup3\n        /* \"#utility.yul\":2966:2975   */\n      div\n        /* \"#utility.yul\":2961:2975   */\n      swap1\n      pop\n        /* \"#utility.yul\":2796:2981   */\n      swap3\n      swap2\n      pop\n      pop\n      jump\t// out\n\n    auxdata: 0xa26469706673582212208a8df8a310b8708cd2f811fce58406cb050db50745374d4c44bab8cfd6e0b70364736f6c634300081a0033\n}\n",
				"bytecode": {
					"linkReferences": {},
					"object": "60806040525f80553480156011575f80fd5b506104ef8061001f5f395ff3fe608060405260043610610049575f3560e01c80631834ef4e1461004d57806338a2ca4014610057578063d0e30db014610081578063d4e932921461008b578063f8b2cb4f14610095575b5f80fd5b6100556100d1565b005b348015610062575f80fd5b5061006b6100ea565b60405161007891906102e6565b60405180910390f35b6100896100f2565b005b61009361014d565b005b3480156100a0575f80fd5b506100bb60048036038101906100b6919061035d565b6101f9565b6040516100c891906102e6565b60405180910390f35b345f808282546100e191906103b5565b92505081905550565b5f8054905090565b3460015f3373ffffffffffffffffffffffffffffffffffffffff1673ffffffffffffffffffffffffffffffffffffffff1681526020019081526020015f2081905550345f8082825461014491906103b5565b92505081905550565b5f3390505f61015b336101f9565b90508173ffffffffffffffffffffffffffffffffffffffff166108fc8290811502906040515f60405180830381858888f193505050501580156101a0573d5f803e3d5ffd5b50805f546101ae91906103e8565b5f819055505f60015f3373ffffffffffffffffffffffffffffffffffffffff1673ffffffffffffffffffffffffffffffffffffffff1681526020019081526020015f20819055505050565b5f8060015f8473ffffffffffffffffffffffffffffffffffffffff1673ffffffffffffffffffffffffffffffffffffffff1681526020019081526020015f205490505f60025f8573ffffffffffffffffffffffffffffffffffffffff1673ffffffffffffffffffffffffffffffffffffffff1681526020019081526020015f20544261028591906103e8565b9050600163bbf81e008260078561029c919061041b565b6102a6919061041b565b6102b09190610489565b836102bb91906103b5565b6102c591906103b5565b92505050919050565b5f819050919050565b6102e0816102ce565b82525050565b5f6020820190506102f95f8301846102d7565b92915050565b5f80fd5b5f73ffffffffffffffffffffffffffffffffffffffff82169050919050565b5f61032c82610303565b9050919050565b61033c81610322565b8114610346575f80fd5b50565b5f8135905061035781610333565b92915050565b5f60208284031215610372576103716102ff565b5b5f61037f84828501610349565b91505092915050565b7f4e487b71000000000000000000000000000000000000000000000000000000005f52601160045260245ffd5b5f6103bf826102ce565b91506103ca836102ce565b92508282019050808211156103e2576103e1610388565b5b92915050565b5f6103f2826102ce565b91506103fd836102ce565b925082820390508181111561041557610414610388565b5b92915050565b5f610425826102ce565b9150610430836102ce565b925082820261043e816102ce565b9150828204841483151761045557610454610388565b5b5092915050565b7f4e487b71000000000000000000000000000000000000000000000000000000005f52601260045260245ffd5b5f610493826102ce565b915061049e836102ce565b9250826104ae576104ad61045c565b5b82820490509291505056fea26469706673582212208a8df8a310b8708cd2f811fce58406cb050db50745374d4c44bab8cfd6e0b70364736f6c634300081a0033",
					"opcodes": "PUSH1 0x80 PUSH1 0x40 MSTORE PUSH0 DUP1 SSTORE CALLVALUE DUP1 ISZERO PUSH1 0x11 JUMPI PUSH0 DUP1 REVERT JUMPDEST POP PUSH2 0x4EF DUP1 PUSH2 0x1F PUSH0 CODECOPY PUSH0 RETURN INVALID PUSH1 0x80 PUSH1 0x40 MSTORE PUSH1 0x4 CALLDATASIZE LT PUSH2 0x49 JUMPI PUSH0 CALLDATALOAD PUSH1 0xE0 SHR DUP1 PUSH4 0x1834EF4E EQ PUSH2 0x4D JUMPI DUP1 PUSH4 0x38A2CA40 EQ PUSH2 0x57 JUMPI DUP1 PUSH4 0xD0E30DB0 EQ PUSH2 0x81 JUMPI DUP1 PUSH4 0xD4E93292 EQ PUSH2 0x8B JUMPI DUP1 PUSH4 0xF8B2CB4F EQ PUSH2 0x95 JUMPI JUMPDEST PUSH0 DUP1 REVERT JUMPDEST PUSH2 0x55 PUSH2 0xD1 JUMP JUMPDEST STOP JUMPDEST CALLVALUE DUP1 ISZERO PUSH2 0x62 JUMPI PUSH0 DUP1 REVERT JUMPDEST POP PUSH2 0x6B PUSH2 0xEA JUMP JUMPDEST PUSH1 0x40 MLOAD PUSH2 0x78 SWAP2 SWAP1 PUSH2 0x2E6 JUMP JUMPDEST PUSH1 0x40 MLOAD DUP1 SWAP2 SUB SWAP1 RETURN JUMPDEST PUSH2 0x89 PUSH2 0xF2 JUMP JUMPDEST STOP JUMPDEST PUSH2 0x93 PUSH2 0x14D JUMP JUMPDEST STOP JUMPDEST CALLVALUE DUP1 ISZERO PUSH2 0xA0 JUMPI PUSH0 DUP1 REVERT JUMPDEST POP PUSH2 0xBB PUSH1 0x4 DUP1 CALLDATASIZE SUB DUP2 ADD SWAP1 PUSH2 0xB6 SWAP2 SWAP1 PUSH2 0x35D JUMP JUMPDEST PUSH2 0x1F9 JUMP JUMPDEST PUSH1 0x40 MLOAD PUSH2 0xC8 SWAP2 SWAP1 PUSH2 0x2E6 JUMP JUMPDEST PUSH1 0x40 MLOAD DUP1 SWAP2 SUB SWAP1 RETURN JUMPDEST CALLVALUE PUSH0 DUP1 DUP3 DUP3 SLOAD PUSH2 0xE1 SWAP2 SWAP1 PUSH2 0x3B5 JUMP JUMPDEST SWAP3 POP POP DUP2 SWAP1 SSTORE POP JUMP JUMPDEST PUSH0 DUP1 SLOAD SWAP1 POP SWAP1 JUMP JUMPDEST CALLVALUE PUSH1 0x1 PUSH0 CALLER PUSH20 0xFFFFFFFFFFFFFFFFFFFFFFFFFFFFFFFFFFFFFFFF AND PUSH20 0xFFFFFFFFFFFFFFFFFFFFFFFFFFFFFFFFFFFFFFFF AND DUP2 MSTORE PUSH1 0x20 ADD SWAP1 DUP2 MSTORE PUSH1 0x20 ADD PUSH0 KECCAK256 DUP2 SWAP1 SSTORE POP CALLVALUE PUSH0 DUP1 DUP3 DUP3 SLOAD PUSH2 0x144 SWAP2 SWAP1 PUSH2 0x3B5 JUMP JUMPDEST SWAP3 POP POP DUP2 SWAP1 SSTORE POP JUMP JUMPDEST PUSH0 CALLER SWAP1 POP PUSH0 PUSH2 0x15B CALLER PUSH2 0x1F9 JUMP JUMPDEST SWAP1 POP DUP2 PUSH20 0xFFFFFFFFFFFFFFFFFFFFFFFFFFFFFFFFFFFFFFFF AND PUSH2 0x8FC DUP3 SWAP1 DUP2 ISZERO MUL SWAP1 PUSH1 0x40 MLOAD PUSH0 PUSH1 0x40 MLOAD DUP1 DUP4 SUB DUP2 DUP6 DUP9 DUP9 CALL SWAP4 POP POP POP POP ISZERO DUP1 ISZERO PUSH2 0x1A0 JUMPI RETURNDATASIZE PUSH0 DUP1 RETURNDATACOPY RETURNDATASIZE PUSH0 REVERT JUMPDEST POP DUP1 PUSH0 SLOAD PUSH2 0x1AE SWAP2 SWAP1 PUSH2 0x3E8 JUMP JUMPDEST PUSH0 DUP2 SWAP1 SSTORE POP PUSH0 PUSH1 0x1 PUSH0 CALLER PUSH20 0xFFFFFFFFFFFFFFFFFFFFFFFFFFFFFFFFFFFFFFFF AND PUSH20 0xFFFFFFFFFFFFFFFFFFFFFFFFFFFFFFFFFFFFFFFF AND DUP2 MSTORE PUSH1 0x20 ADD SWAP1 DUP2 MSTORE PUSH1 0x20 ADD PUSH0 KECCAK256 DUP2 SWAP1 SSTORE POP POP POP JUMP JUMPDEST PUSH0 DUP1 PUSH1 0x1 PUSH0 DUP5 PUSH20 0xFFFFFFFFFFFFFFFFFFFFFFFFFFFFFFFFFFFFFFFF AND PUSH20 0xFFFFFFFFFFFFFFFFFFFFFFFFFFFFFFFFFFFFFFFF AND DUP2 MSTORE PUSH1 0x20 ADD SWAP1 DUP2 MSTORE PUSH1 0x20 ADD PUSH0 KECCAK256 SLOAD SWAP1 POP PUSH0 PUSH1 0x2 PUSH0 DUP6 PUSH20 0xFFFFFFFFFFFFFFFFFFFFFFFFFFFFFFFFFFFFFFFF AND PUSH20 0xFFFFFFFFFFFFFFFFFFFFFFFFFFFFFFFFFFFFFFFF AND DUP2 MSTORE PUSH1 0x20 ADD SWAP1 DUP2 MSTORE PUSH1 0x20 ADD PUSH0 KECCAK256 SLOAD TIMESTAMP PUSH2 0x285 SWAP2 SWAP1 PUSH2 0x3E8 JUMP JUMPDEST SWAP1 POP PUSH1 0x1 PUSH4 0xBBF81E00 DUP3 PUSH1 0x7 DUP6 PUSH2 0x29C SWAP2 SWAP1 PUSH2 0x41B JUMP JUMPDEST PUSH2 0x2A6 SWAP2 SWAP1 PUSH2 0x41B JUMP JUMPDEST PUSH2 0x2B0 SWAP2 SWAP1 PUSH2 0x489 JUMP JUMPDEST DUP4 PUSH2 0x2BB SWAP2 SWAP1 PUSH2 0x3B5 JUMP JUMPDEST PUSH2 0x2C5 SWAP2 SWAP1 PUSH2 0x3B5 JUMP JUMPDEST SWAP3 POP POP POP SWAP2 SWAP1 POP JUMP JUMPDEST PUSH0 DUP2 SWAP1 POP SWAP2 SWAP1 POP JUMP JUMPDEST PUSH2 0x2E0 DUP2 PUSH2 0x2CE JUMP JUMPDEST DUP3 MSTORE POP POP JUMP JUMPDEST PUSH0 PUSH1 0x20 DUP3 ADD SWAP1 POP PUSH2 0x2F9 PUSH0 DUP4 ADD DUP5 PUSH2 0x2D7 JUMP JUMPDEST SWAP3 SWAP2 POP POP JUMP JUMPDEST PUSH0 DUP1 REVERT JUMPDEST PUSH0 PUSH20 0xFFFFFFFFFFFFFFFFFFFFFFFFFFFFFFFFFFFFFFFF DUP3 AND SWAP1 POP SWAP2 SWAP1 POP JUMP JUMPDEST PUSH0 PUSH2 0x32C DUP3 PUSH2 0x303 JUMP JUMPDEST SWAP1 POP SWAP2 SWAP1 POP JUMP JUMPDEST PUSH2 0x33C DUP2 PUSH2 0x322 JUMP JUMPDEST DUP2 EQ PUSH2 0x346 JUMPI PUSH0 DUP1 REVERT JUMPDEST POP JUMP JUMPDEST PUSH0 DUP2 CALLDATALOAD SWAP1 POP PUSH2 0x357 DUP2 PUSH2 0x333 JUMP JUMPDEST SWAP3 SWAP2 POP POP JUMP JUMPDEST PUSH0 PUSH1 0x20 DUP3 DUP5 SUB SLT ISZERO PUSH2 0x372 JUMPI PUSH2 0x371 PUSH2 0x2FF JUMP JUMPDEST JUMPDEST PUSH0 PUSH2 0x37F DUP5 DUP3 DUP6 ADD PUSH2 0x349 JUMP JUMPDEST SWAP2 POP POP SWAP3 SWAP2 POP POP JUMP JUMPDEST PUSH32 0x4E487B7100000000000000000000000000000000000000000000000000000000 PUSH0 MSTORE PUSH1 0x11 PUSH1 0x4 MSTORE PUSH1 0x24 PUSH0 REVERT JUMPDEST PUSH0 PUSH2 0x3BF DUP3 PUSH2 0x2CE JUMP JUMPDEST SWAP2 POP PUSH2 0x3CA DUP4 PUSH2 0x2CE JUMP JUMPDEST SWAP3 POP DUP3 DUP3 ADD SWAP1 POP DUP1 DUP3 GT ISZERO PUSH2 0x3E2 JUMPI PUSH2 0x3E1 PUSH2 0x388 JUMP JUMPDEST JUMPDEST SWAP3 SWAP2 POP POP JUMP JUMPDEST PUSH0 PUSH2 0x3F2 DUP3 PUSH2 0x2CE JUMP JUMPDEST SWAP2 POP PUSH2 0x3FD DUP4 PUSH2 0x2CE JUMP JUMPDEST SWAP3 POP DUP3 DUP3 SUB SWAP1 POP DUP2 DUP2 GT ISZERO PUSH2 0x415 JUMPI PUSH2 0x414 PUSH2 0x388 JUMP JUMPDEST JUMPDEST SWAP3 SWAP2 POP POP JUMP JUMPDEST PUSH0 PUSH2 0x425 DUP3 PUSH2 0x2CE JUMP JUMPDEST SWAP2 POP PUSH2 0x430 DUP4 PUSH2 0x2CE JUMP JUMPDEST SWAP3 POP DUP3 DUP3 MUL PUSH2 0x43E DUP2 PUSH2 0x2CE JUMP JUMPDEST SWAP2 POP DUP3 DUP3 DIV DUP5 EQ DUP4 ISZERO OR PUSH2 0x455 JUMPI PUSH2 0x454 PUSH2 0x388 JUMP JUMPDEST JUMPDEST POP SWAP3 SWAP2 POP POP JUMP JUMPDEST PUSH32 0x4E487B7100000000000000000000000000000000000000000000000000000000 PUSH0 MSTORE PUSH1 0x12 PUSH1 0x4 MSTORE PUSH1 0x24 PUSH0 REVERT JUMPDEST PUSH0 PUSH2 0x493 DUP3 PUSH2 0x2CE JUMP JUMPDEST SWAP2 POP PUSH2 0x49E DUP4 PUSH2 0x2CE JUMP JUMPDEST SWAP3 POP DUP3 PUSH2 0x4AE JUMPI PUSH2 0x4AD PUSH2 0x45C JUMP JUMPDEST JUMPDEST DUP3 DUP3 DIV SWAP1 POP SWAP3 SWAP2 POP POP JUMP INVALID LOG2 PUSH5 0x6970667358 0x22 SLT KECCAK256 DUP11 DUP14 0xF8 LOG3 LT 0xB8 PUSH17 0x8CD2F811FCE58406CB050DB50745374D4C PREVRANDAO 0xBA 0xB8 0xCF 0xD6 0xE0 0xB7 SUB PUSH5 0x736F6C6343 STOP ADDMOD BYTE STOP CALLER "
				},
				"gasEstimates": {
					"creation": {
						"codeDepositCost": "252600",
						"executionCost": "5297",
						"totalCost": "257897"
					},
					"external": {
						"addMoneyToContract()": "infinite",
						"deposit()": "infinite",
						"getBalance(address)": "infinite",
						"getTotalBankBalance()": "2432",
						"withdrawal()": "infinite"
					}
				},
				"methodIdentifiers": {
					"addMoneyToContract()": "1834ef4e",
					"deposit()": "d0e30db0",
					"getBalance(address)": "f8b2cb4f",
					"getTotalBankBalance()": "38a2ca40",
					"withdrawal()": "d4e93292"
				}
			},
			"storageLayout": {
				"storage": [
					{
						"astId": 4,
						"contract": "contracts/ArifBank.sol:ArifBank",
						"label": "totalBankBalance",
						"offset": 0,
						"slot": "0",
						"type": "t_uint256"
					},
					{
						"astId": 16,
						"contract": "contracts/ArifBank.sol:ArifBank",
						"label": "balances",
						"offset": 0,
						"slot": "1",
						"type": "t_mapping(t_address,t_uint256)"
					},
					{
						"astId": 20,
						"contract": "contracts/ArifBank.sol:ArifBank",
						"label": "depositTimeStamp",
						"offset": 0,
						"slot": "2",
						"type": "t_mapping(t_address,t_uint256)"
					}
				],
				"types": {
					"t_address": {
						"encoding": "inplace",
						"label": "address",
						"numberOfBytes": "20"
					},
					"t_mapping(t_address,t_uint256)": {
						"encoding": "mapping",
						"key": "t_address",
						"label": "mapping(address => uint256)",
						"numberOfBytes": "32",
						"value": "t_uint256"
					},
					"t_uint256": {
						"encoding": "inplace",
						"label": "uint256",
						"numberOfBytes": "32"
					}
				}
			},
			"userdoc": {
				"kind": "user",
				"methods": {},
				"version": 1
			}
		}
	}
}