{
	"contracts/ArifBank.sol": {
		"ArifBank": {
			"abi": [
				{
					"inputs": [],
					"name": "addMoneyToContract",
					"outputs": [],
					"stateMutability": "payable",
					"type": "function"
				},
				{
					"inputs": [],
					"name": "deposit",
					"outputs": [],
					"stateMutability": "payable",
					"type": "function"
				},
				{
					"inputs": [
						{
							"internalType": "address",
							"name": "_userAddress",
							"type": "address"
						}
					],
					"name": "getBalance",
					"outputs": [
						{
							"internalType": "uint256",
							"name": "",
							"type": "uint256"
						}
					],
					"stateMutability": "view",
					"type": "function"
				},
				{
					"inputs": [],
					"name": "getTotalBankBalance",
					"outputs": [
						{
							"internalType": "uint256",
							"name": "",
							"type": "uint256"
						}
					],
					"stateMutability": "view",
					"type": "function"
				},
				{
					"inputs": [],
					"name": "withdrawal",
					"outputs": [],
					"stateMutability": "payable",
					"type": "function"
				}
			],
			"devdoc": {
				"kind": "dev",
				"methods": {},
				"version": 1
			},
			"evm": {
				"assembly": "    /* \"contracts/ArifBank.sol\":561:2714  contract ArifBank {... */\n  mstore(0x40, 0x80)\n    /* \"contracts/ArifBank.sol\":637:638  0 */\n  0x00\n    /* \"contracts/ArifBank.sol\":613:638  uint totalBankBalance = 0 */\n  dup1\n  sstore\n    /* \"contracts/ArifBank.sol\":705:747  0xAec1F48e02Cfb822Be958B68C7957156EB3F0b6e */\n  0xaec1f48e02cfb822be958b68c7957156eb3f0b6e\n    /* \"contracts/ArifBank.sol\":673:747  address COMPOUND_CETH_ADDRESS = 0xAec1F48e02Cfb822Be958B68C7957156EB3F0b6e */\n  0x01\n  exp(0x0100, 0x00)\n  dup2\n  sload\n  dup2\n  0xffffffffffffffffffffffffffffffffffffffff\n  mul\n  not\n  and\n  swap1\n  dup4\n  0xffffffffffffffffffffffffffffffffffffffff\n  and\n  mul\n  or\n  swap1\n  sstore\n  pop\n    /* \"contracts/ArifBank.sol\":771:792  COMPOUND_CETH_ADDRESS */\n  0x01\n  0x00\n  swap1\n  sload\n  swap1\n  0x0100\n  exp\n  swap1\n  div\n  0xffffffffffffffffffffffffffffffffffffffff\n  and\n    /* \"contracts/ArifBank.sol\":754:793  cETH ceth = cETH(COMPOUND_CETH_ADDRESS) */\n  0x02\n  exp(0x0100, 0x00)\n  dup2\n  sload\n  dup2\n  0xffffffffffffffffffffffffffffffffffffffff\n  mul\n  not\n  and\n  swap1\n  dup4\n  0xffffffffffffffffffffffffffffffffffffffff\n  and\n  mul\n  or\n  swap1\n  sstore\n  pop\n    /* \"contracts/ArifBank.sol\":561:2714  contract ArifBank {... */\n  callvalue\n  dup1\n  iszero\n  tag_1\n  jumpi\n  0x00\n  dup1\n  revert\ntag_1:\n  pop\n  dataSize(sub_0)\n  dup1\n  dataOffset(sub_0)\n  0x00\n  codecopy\n  0x00\n  return\nstop\n\nsub_0: assembly {\n        /* \"contracts/ArifBank.sol\":561:2714  contract ArifBank {... */\n      mstore(0x40, 0x80)\n      jumpi(tag_1, lt(calldatasize, 0x04))\n      shr(0xe0, calldataload(0x00))\n      dup1\n      0x1834ef4e\n      eq\n      tag_2\n      jumpi\n      dup1\n      0x38a2ca40\n      eq\n      tag_3\n      jumpi\n      dup1\n      0xd0e30db0\n      eq\n      tag_4\n      jumpi\n      dup1\n      0xd4e93292\n      eq\n      tag_5\n      jumpi\n      dup1\n      0xf8b2cb4f\n      eq\n      tag_6\n      jumpi\n    tag_1:\n      0x00\n      dup1\n      revert\n        /* \"contracts/ArifBank.sol\":2618:2711  function addMoneyToContract() public payable {... */\n    tag_2:\n      tag_7\n      tag_8\n      jump\t// in\n    tag_7:\n      stop\n        /* \"contracts/ArifBank.sol\":847:947  function getTotalBankBalance() public  view returns(uint) {... */\n    tag_3:\n      callvalue\n      dup1\n      iszero\n      tag_9\n      jumpi\n      0x00\n      dup1\n      revert\n    tag_9:\n      pop\n      tag_10\n      tag_11\n      jump\t// in\n    tag_10:\n      mload(0x40)\n      tag_12\n      swap2\n      swap1\n      tag_13\n      jump\t// in\n    tag_12:\n      mload(0x40)\n      dup1\n      swap2\n      sub\n      swap1\n      return\n        /* \"contracts/ArifBank.sol\":1169:1505  function deposit() public  payable {... */\n    tag_4:\n      tag_14\n      tag_15\n      jump\t// in\n    tag_14:\n      stop\n        /* \"contracts/ArifBank.sol\":2028:2561  function withdrawal() public payable {... */\n    tag_5:\n      tag_16\n      tag_17\n      jump\t// in\n    tag_16:\n      stop\n        /* \"contracts/ArifBank.sol\":1544:1986  function getBalance(address _userAddress) public view returns(uint) {... */\n    tag_6:\n      callvalue\n      dup1\n      iszero\n      tag_18\n      jumpi\n      0x00\n      dup1\n      revert\n    tag_18:\n      pop\n      tag_19\n      0x04\n      dup1\n      calldatasize\n      sub\n      dup2\n      add\n      swap1\n      tag_20\n      swap2\n      swap1\n      tag_21\n      jump\t// in\n    tag_20:\n      tag_22\n      jump\t// in\n    tag_19:\n      mload(0x40)\n      tag_23\n      swap2\n      swap1\n      tag_13\n      jump\t// in\n    tag_23:\n      mload(0x40)\n      dup1\n      swap2\n      sub\n      swap1\n      return\n        /* \"contracts/ArifBank.sol\":2618:2711  function addMoneyToContract() public payable {... */\n    tag_8:\n        /* \"contracts/ArifBank.sol\":2694:2703  msg.value */\n      callvalue\n        /* \"contracts/ArifBank.sol\":2674:2690  totalBankBalance */\n      0x00\n      dup1\n        /* \"contracts/ArifBank.sol\":2674:2703  totalBankBalance += msg.value */\n      dup3\n      dup3\n      sload\n      tag_25\n      swap2\n      swap1\n      tag_26\n      jump\t// in\n    tag_25:\n      swap3\n      pop\n      pop\n      dup2\n      swap1\n      sstore\n      pop\n        /* \"contracts/ArifBank.sol\":2618:2711  function addMoneyToContract() public payable {... */\n      jump\t// out\n        /* \"contracts/ArifBank.sol\":847:947  function getTotalBankBalance() public  view returns(uint) {... */\n    tag_11:\n        /* \"contracts/ArifBank.sol\":899:903  uint */\n      0x00\n        /* \"contracts/ArifBank.sol\":923:939  totalBankBalance */\n      dup1\n      sload\n        /* \"contracts/ArifBank.sol\":916:939  return totalBankBalance */\n      swap1\n      pop\n        /* \"contracts/ArifBank.sol\":847:947  function getTotalBankBalance() public  view returns(uint) {... */\n      swap1\n      jump\t// out\n        /* \"contracts/ArifBank.sol\":1169:1505  function deposit() public  payable {... */\n    tag_15:\n        /* \"contracts/ArifBank.sol\":1237:1246  msg.value */\n      callvalue\n        /* \"contracts/ArifBank.sol\":1214:1222  balances */\n      0x03\n        /* \"contracts/ArifBank.sol\":1214:1234  balances[msg.sender] */\n      0x00\n        /* \"contracts/ArifBank.sol\":1223:1233  msg.sender */\n      caller\n        /* \"contracts/ArifBank.sol\":1214:1234  balances[msg.sender] */\n      0xffffffffffffffffffffffffffffffffffffffff\n      and\n      0xffffffffffffffffffffffffffffffffffffffff\n      and\n      dup2\n      mstore\n      0x20\n      add\n      swap1\n      dup2\n      mstore\n      0x20\n      add\n      0x00\n      keccak256\n        /* \"contracts/ArifBank.sol\":1214:1246  balances[msg.sender] = msg.value */\n      dup2\n      swap1\n      sstore\n      pop\n        /* \"contracts/ArifBank.sol\":1315:1324  msg.value */\n      callvalue\n        /* \"contracts/ArifBank.sol\":1295:1311  totalBankBalance */\n      0x00\n      dup1\n        /* \"contracts/ArifBank.sol\":1295:1324  totalBankBalance += msg.value */\n      dup3\n      dup3\n      sload\n      tag_29\n      swap2\n      swap1\n      tag_26\n      jump\t// in\n    tag_29:\n      swap3\n      pop\n      pop\n      dup2\n      swap1\n      sstore\n      pop\n        /* \"contracts/ArifBank.sol\":1402:1417  block.timestamp */\n      timestamp\n        /* \"contracts/ArifBank.sol\":1371:1387  depositTimeStamp */\n      0x04\n        /* \"contracts/ArifBank.sol\":1371:1399  depositTimeStamp[msg.sender] */\n      0x00\n        /* \"contracts/ArifBank.sol\":1388:1398  msg.sender */\n      caller\n        /* \"contracts/ArifBank.sol\":1371:1399  depositTimeStamp[msg.sender] */\n      0xffffffffffffffffffffffffffffffffffffffff\n      and\n      0xffffffffffffffffffffffffffffffffffffffff\n      and\n      dup2\n      mstore\n      0x20\n      add\n      swap1\n      dup2\n      mstore\n      0x20\n      add\n      0x00\n      keccak256\n        /* \"contracts/ArifBank.sol\":1371:1417  depositTimeStamp[msg.sender] = block.timestamp */\n      dup2\n      swap1\n      sstore\n      pop\n        /* \"contracts/ArifBank.sol\":1468:1472  ceth */\n      0x02\n      0x00\n      swap1\n      sload\n      swap1\n      0x0100\n      exp\n      swap1\n      div\n      0xffffffffffffffffffffffffffffffffffffffff\n      and\n        /* \"contracts/ArifBank.sol\":1468:1477  ceth.mint */\n      0xffffffffffffffffffffffffffffffffffffffff\n      and\n      0x1249c58b\n        /* \"contracts/ArifBank.sol\":1485:1494  msg.value */\n      callvalue\n        /* \"contracts/ArifBank.sol\":1468:1497  ceth.mint{value: msg.value}() */\n      mload(0x40)\n      dup3\n      0xffffffff\n      and\n      0xe0\n      shl\n      dup2\n      mstore\n      0x04\n      add\n      0x00\n      mload(0x40)\n      dup1\n      dup4\n      sub\n      dup2\n      dup6\n      dup9\n      dup1\n      extcodesize\n      iszero\n      dup1\n      iszero\n      tag_30\n      jumpi\n      0x00\n      dup1\n      revert\n    tag_30:\n      pop\n      gas\n      call\n      iszero\n      dup1\n      iszero\n      tag_32\n      jumpi\n      returndatasize\n      0x00\n      dup1\n      returndatacopy\n      revert(0x00, returndatasize)\n    tag_32:\n      pop\n      pop\n      pop\n      pop\n      pop\n        /* \"contracts/ArifBank.sol\":1169:1505  function deposit() public  payable {... */\n      jump\t// out\n        /* \"contracts/ArifBank.sol\":2028:2561  function withdrawal() public payable {... */\n    tag_17:\n        /* \"contracts/ArifBank.sol\":2119:2145  address payable withdrawTo */\n      0x00\n        /* \"contracts/ArifBank.sol\":2156:2166  msg.sender */\n      caller\n        /* \"contracts/ArifBank.sol\":2119:2167  address payable withdrawTo = payable(msg.sender) */\n      swap1\n      pop\n        /* \"contracts/ArifBank.sol\":2219:2240  uint amountToTransfer */\n      0x00\n        /* \"contracts/ArifBank.sol\":2243:2265  getBalance(msg.sender) */\n      tag_34\n        /* \"contracts/ArifBank.sol\":2254:2264  msg.sender */\n      caller\n        /* \"contracts/ArifBank.sol\":2243:2253  getBalance */\n      tag_22\n        /* \"contracts/ArifBank.sol\":2243:2265  getBalance(msg.sender) */\n      jump\t// in\n    tag_34:\n        /* \"contracts/ArifBank.sol\":2219:2265  uint amountToTransfer = getBalance(msg.sender) */\n      swap1\n      pop\n        /* \"contracts/ArifBank.sol\":2317:2327  withdrawTo */\n      dup2\n        /* \"contracts/ArifBank.sol\":2317:2336  withdrawTo.transfer */\n      0xffffffffffffffffffffffffffffffffffffffff\n      and\n        /* \"contracts/ArifBank.sol\":2317:2354  withdrawTo.transfer(amountToTransfer) */\n      0x08fc\n        /* \"contracts/ArifBank.sol\":2337:2353  amountToTransfer */\n      dup3\n        /* \"contracts/ArifBank.sol\":2317:2354  withdrawTo.transfer(amountToTransfer) */\n      swap1\n      dup2\n      iszero\n      mul\n      swap1\n      mload(0x40)\n      0x00\n      mload(0x40)\n      dup1\n      dup4\n      sub\n      dup2\n      dup6\n      dup9\n      dup9\n      call\n      swap4\n      pop\n      pop\n      pop\n      pop\n      iszero\n      dup1\n      iszero\n      tag_36\n      jumpi\n      returndatasize\n      0x00\n      dup1\n      returndatacopy\n      revert(0x00, returndatasize)\n    tag_36:\n      pop\n        /* \"contracts/ArifBank.sol\":2468:2484  amountToTransfer */\n      dup1\n        /* \"contracts/ArifBank.sol\":2449:2465  totalBankBalance */\n      sload(0x00)\n        /* \"contracts/ArifBank.sol\":2449:2484  totalBankBalance - amountToTransfer */\n      tag_37\n      swap2\n      swap1\n      tag_38\n      jump\t// in\n    tag_37:\n        /* \"contracts/ArifBank.sol\":2430:2446  totalBankBalance */\n      0x00\n        /* \"contracts/ArifBank.sol\":2430:2484  totalBankBalance = totalBankBalance - amountToTransfer */\n      dup2\n      swap1\n      sstore\n      pop\n        /* \"contracts/ArifBank.sol\":2552:2553  0 */\n      0x00\n        /* \"contracts/ArifBank.sol\":2529:2537  balances */\n      0x03\n        /* \"contracts/ArifBank.sol\":2529:2549  balances[msg.sender] */\n      0x00\n        /* \"contracts/ArifBank.sol\":2538:2548  msg.sender */\n      caller\n        /* \"contracts/ArifBank.sol\":2529:2549  balances[msg.sender] */\n      0xffffffffffffffffffffffffffffffffffffffff\n      and\n      0xffffffffffffffffffffffffffffffffffffffff\n      and\n      dup2\n      mstore\n      0x20\n      add\n      swap1\n      dup2\n      mstore\n      0x20\n      add\n      0x00\n      keccak256\n        /* \"contracts/ArifBank.sol\":2529:2553  balances[msg.sender] = 0 */\n      dup2\n      swap1\n      sstore\n      pop\n        /* \"contracts/ArifBank.sol\":2065:2561  {... */\n      pop\n      pop\n        /* \"contracts/ArifBank.sol\":2028:2561  function withdrawal() public payable {... */\n      jump\t// out\n        /* \"contracts/ArifBank.sol\":1544:1986  function getBalance(address _userAddress) public view returns(uint) {... */\n    tag_22:\n        /* \"contracts/ArifBank.sol\":1606:1610  uint */\n      0x00\n        /* \"contracts/ArifBank.sol\":1974:1978  1e18 */\n      0x0de0b6b3a7640000\n        /* \"contracts/ArifBank.sol\":1946:1950  ceth */\n      0x02\n      0x00\n      swap1\n      sload\n      swap1\n      0x0100\n      exp\n      swap1\n      div\n      0xffffffffffffffffffffffffffffffffffffffff\n      and\n        /* \"contracts/ArifBank.sol\":1946:1969  ceth.exchangeRateStored */\n      0xffffffffffffffffffffffffffffffffffffffff\n      and\n      0x182df0f5\n        /* \"contracts/ArifBank.sol\":1946:1971  ceth.exchangeRateStored() */\n      mload(0x40)\n      dup2\n      0xffffffff\n      and\n      0xe0\n      shl\n      dup2\n      mstore\n      0x04\n      add\n      0x20\n      mload(0x40)\n      dup1\n      dup4\n      sub\n      dup2\n      dup7\n      gas\n      staticcall\n      iszero\n      dup1\n      iszero\n      tag_41\n      jumpi\n      returndatasize\n      0x00\n      dup1\n      returndatacopy\n      revert(0x00, returndatasize)\n    tag_41:\n      pop\n      pop\n      pop\n      pop\n      mload(0x40)\n      returndatasize\n      not(0x1f)\n      0x1f\n      dup3\n      add\n      and\n      dup3\n      add\n      dup1\n      0x40\n      mstore\n      pop\n      dup2\n      add\n      swap1\n      tag_42\n      swap2\n      swap1\n      tag_43\n      jump\t// in\n    tag_42:\n        /* \"contracts/ArifBank.sol\":1915:1919  ceth */\n      0x02\n      0x00\n      swap1\n      sload\n      swap1\n      0x0100\n      exp\n      swap1\n      div\n      0xffffffffffffffffffffffffffffffffffffffff\n      and\n        /* \"contracts/ArifBank.sol\":1915:1929  ceth.balanceOf */\n      0xffffffffffffffffffffffffffffffffffffffff\n      and\n      0x70a08231\n        /* \"contracts/ArifBank.sol\":1930:1942  _userAddress */\n      dup6\n        /* \"contracts/ArifBank.sol\":1915:1943  ceth.balanceOf(_userAddress) */\n      mload(0x40)\n      dup3\n      0xffffffff\n      and\n      0xe0\n      shl\n      dup2\n      mstore\n      0x04\n      add\n      tag_44\n      swap2\n      swap1\n      tag_45\n      jump\t// in\n    tag_44:\n      0x20\n      mload(0x40)\n      dup1\n      dup4\n      sub\n      dup2\n      dup7\n      gas\n      staticcall\n      iszero\n      dup1\n      iszero\n      tag_47\n      jumpi\n      returndatasize\n      0x00\n      dup1\n      returndatacopy\n      revert(0x00, returndatasize)\n    tag_47:\n      pop\n      pop\n      pop\n      pop\n      mload(0x40)\n      returndatasize\n      not(0x1f)\n      0x1f\n      dup3\n      add\n      and\n      dup3\n      add\n      dup1\n      0x40\n      mstore\n      pop\n      dup2\n      add\n      swap1\n      tag_48\n      swap2\n      swap1\n      tag_43\n      jump\t// in\n    tag_48:\n        /* \"contracts/ArifBank.sol\":1915:1971  ceth.balanceOf(_userAddress) * ceth.exchangeRateStored() */\n      tag_49\n      swap2\n      swap1\n      tag_50\n      jump\t// in\n    tag_49:\n        /* \"contracts/ArifBank.sol\":1915:1978  ceth.balanceOf(_userAddress) * ceth.exchangeRateStored() / 1e18 */\n      tag_51\n      swap2\n      swap1\n      tag_52\n      jump\t// in\n    tag_51:\n        /* \"contracts/ArifBank.sol\":1908:1978  return ceth.balanceOf(_userAddress) * ceth.exchangeRateStored() / 1e18 */\n      swap1\n      pop\n        /* \"contracts/ArifBank.sol\":1544:1986  function getBalance(address _userAddress) public view returns(uint) {... */\n      swap2\n      swap1\n      pop\n      jump\t// out\n        /* \"#utility.yul\":7:84   */\n    tag_53:\n        /* \"#utility.yul\":44:51   */\n      0x00\n        /* \"#utility.yul\":73:78   */\n      dup2\n        /* \"#utility.yul\":62:78   */\n      swap1\n      pop\n        /* \"#utility.yul\":7:84   */\n      swap2\n      swap1\n      pop\n      jump\t// out\n        /* \"#utility.yul\":90:208   */\n    tag_54:\n        /* \"#utility.yul\":177:201   */\n      tag_70\n        /* \"#utility.yul\":195:200   */\n      dup2\n        /* \"#utility.yul\":177:201   */\n      tag_53\n      jump\t// in\n    tag_70:\n        /* \"#utility.yul\":172:175   */\n      dup3\n        /* \"#utility.yul\":165:202   */\n      mstore\n        /* \"#utility.yul\":90:208   */\n      pop\n      pop\n      jump\t// out\n        /* \"#utility.yul\":214:436   */\n    tag_13:\n        /* \"#utility.yul\":307:311   */\n      0x00\n        /* \"#utility.yul\":345:347   */\n      0x20\n        /* \"#utility.yul\":334:343   */\n      dup3\n        /* \"#utility.yul\":330:348   */\n      add\n        /* \"#utility.yul\":322:348   */\n      swap1\n      pop\n        /* \"#utility.yul\":358:429   */\n      tag_72\n        /* \"#utility.yul\":426:427   */\n      0x00\n        /* \"#utility.yul\":415:424   */\n      dup4\n        /* \"#utility.yul\":411:428   */\n      add\n        /* \"#utility.yul\":402:408   */\n      dup5\n        /* \"#utility.yul\":358:429   */\n      tag_54\n      jump\t// in\n    tag_72:\n        /* \"#utility.yul\":214:436   */\n      swap3\n      swap2\n      pop\n      pop\n      jump\t// out\n        /* \"#utility.yul\":523:640   */\n    tag_56:\n        /* \"#utility.yul\":632:633   */\n      0x00\n        /* \"#utility.yul\":629:630   */\n      dup1\n        /* \"#utility.yul\":622:634   */\n      revert\n        /* \"#utility.yul\":769:895   */\n    tag_58:\n        /* \"#utility.yul\":806:813   */\n      0x00\n        /* \"#utility.yul\":846:888   */\n      0xffffffffffffffffffffffffffffffffffffffff\n        /* \"#utility.yul\":839:844   */\n      dup3\n        /* \"#utility.yul\":835:889   */\n      and\n        /* \"#utility.yul\":824:889   */\n      swap1\n      pop\n        /* \"#utility.yul\":769:895   */\n      swap2\n      swap1\n      pop\n      jump\t// out\n        /* \"#utility.yul\":901:997   */\n    tag_59:\n        /* \"#utility.yul\":938:945   */\n      0x00\n        /* \"#utility.yul\":967:991   */\n      tag_78\n        /* \"#utility.yul\":985:990   */\n      dup3\n        /* \"#utility.yul\":967:991   */\n      tag_58\n      jump\t// in\n    tag_78:\n        /* \"#utility.yul\":956:991   */\n      swap1\n      pop\n        /* \"#utility.yul\":901:997   */\n      swap2\n      swap1\n      pop\n      jump\t// out\n        /* \"#utility.yul\":1003:1125   */\n    tag_60:\n        /* \"#utility.yul\":1076:1100   */\n      tag_80\n        /* \"#utility.yul\":1094:1099   */\n      dup2\n        /* \"#utility.yul\":1076:1100   */\n      tag_59\n      jump\t// in\n    tag_80:\n        /* \"#utility.yul\":1069:1074   */\n      dup2\n        /* \"#utility.yul\":1066:1101   */\n      eq\n        /* \"#utility.yul\":1056:1119   */\n      tag_81\n      jumpi\n        /* \"#utility.yul\":1115:1116   */\n      0x00\n        /* \"#utility.yul\":1112:1113   */\n      dup1\n        /* \"#utility.yul\":1105:1117   */\n      revert\n        /* \"#utility.yul\":1056:1119   */\n    tag_81:\n        /* \"#utility.yul\":1003:1125   */\n      pop\n      jump\t// out\n        /* \"#utility.yul\":1131:1270   */\n    tag_61:\n        /* \"#utility.yul\":1177:1182   */\n      0x00\n        /* \"#utility.yul\":1215:1221   */\n      dup2\n        /* \"#utility.yul\":1202:1222   */\n      calldataload\n        /* \"#utility.yul\":1193:1222   */\n      swap1\n      pop\n        /* \"#utility.yul\":1231:1264   */\n      tag_83\n        /* \"#utility.yul\":1258:1263   */\n      dup2\n        /* \"#utility.yul\":1231:1264   */\n      tag_60\n      jump\t// in\n    tag_83:\n        /* \"#utility.yul\":1131:1270   */\n      swap3\n      swap2\n      pop\n      pop\n      jump\t// out\n        /* \"#utility.yul\":1276:1605   */\n    tag_21:\n        /* \"#utility.yul\":1335:1341   */\n      0x00\n        /* \"#utility.yul\":1384:1386   */\n      0x20\n        /* \"#utility.yul\":1372:1381   */\n      dup3\n        /* \"#utility.yul\":1363:1370   */\n      dup5\n        /* \"#utility.yul\":1359:1382   */\n      sub\n        /* \"#utility.yul\":1355:1387   */\n      slt\n        /* \"#utility.yul\":1352:1471   */\n      iszero\n      tag_85\n      jumpi\n        /* \"#utility.yul\":1390:1469   */\n      tag_86\n      tag_56\n      jump\t// in\n    tag_86:\n        /* \"#utility.yul\":1352:1471   */\n    tag_85:\n        /* \"#utility.yul\":1510:1511   */\n      0x00\n        /* \"#utility.yul\":1535:1588   */\n      tag_87\n        /* \"#utility.yul\":1580:1587   */\n      dup5\n        /* \"#utility.yul\":1571:1577   */\n      dup3\n        /* \"#utility.yul\":1560:1569   */\n      dup6\n        /* \"#utility.yul\":1556:1578   */\n      add\n        /* \"#utility.yul\":1535:1588   */\n      tag_61\n      jump\t// in\n    tag_87:\n        /* \"#utility.yul\":1525:1588   */\n      swap2\n      pop\n        /* \"#utility.yul\":1481:1598   */\n      pop\n        /* \"#utility.yul\":1276:1605   */\n      swap3\n      swap2\n      pop\n      pop\n      jump\t// out\n        /* \"#utility.yul\":1611:1791   */\n    tag_62:\n        /* \"#utility.yul\":1659:1736   */\n      0x4e487b7100000000000000000000000000000000000000000000000000000000\n        /* \"#utility.yul\":1656:1657   */\n      0x00\n        /* \"#utility.yul\":1649:1737   */\n      mstore\n        /* \"#utility.yul\":1756:1760   */\n      0x11\n        /* \"#utility.yul\":1753:1754   */\n      0x04\n        /* \"#utility.yul\":1746:1761   */\n      mstore\n        /* \"#utility.yul\":1780:1784   */\n      0x24\n        /* \"#utility.yul\":1777:1778   */\n      0x00\n        /* \"#utility.yul\":1770:1785   */\n      revert\n        /* \"#utility.yul\":1797:1988   */\n    tag_26:\n        /* \"#utility.yul\":1837:1840   */\n      0x00\n        /* \"#utility.yul\":1856:1876   */\n      tag_90\n        /* \"#utility.yul\":1874:1875   */\n      dup3\n        /* \"#utility.yul\":1856:1876   */\n      tag_53\n      jump\t// in\n    tag_90:\n        /* \"#utility.yul\":1851:1876   */\n      swap2\n      pop\n        /* \"#utility.yul\":1890:1910   */\n      tag_91\n        /* \"#utility.yul\":1908:1909   */\n      dup4\n        /* \"#utility.yul\":1890:1910   */\n      tag_53\n      jump\t// in\n    tag_91:\n        /* \"#utility.yul\":1885:1910   */\n      swap3\n      pop\n        /* \"#utility.yul\":1933:1934   */\n      dup3\n        /* \"#utility.yul\":1930:1931   */\n      dup3\n        /* \"#utility.yul\":1926:1935   */\n      add\n        /* \"#utility.yul\":1919:1935   */\n      swap1\n      pop\n        /* \"#utility.yul\":1954:1957   */\n      dup1\n        /* \"#utility.yul\":1951:1952   */\n      dup3\n        /* \"#utility.yul\":1948:1958   */\n      gt\n        /* \"#utility.yul\":1945:1981   */\n      iszero\n      tag_92\n      jumpi\n        /* \"#utility.yul\":1961:1979   */\n      tag_93\n      tag_62\n      jump\t// in\n    tag_93:\n        /* \"#utility.yul\":1945:1981   */\n    tag_92:\n        /* \"#utility.yul\":1797:1988   */\n      swap3\n      swap2\n      pop\n      pop\n      jump\t// out\n        /* \"#utility.yul\":1994:2188   */\n    tag_38:\n        /* \"#utility.yul\":2034:2038   */\n      0x00\n        /* \"#utility.yul\":2054:2074   */\n      tag_95\n        /* \"#utility.yul\":2072:2073   */\n      dup3\n        /* \"#utility.yul\":2054:2074   */\n      tag_53\n      jump\t// in\n    tag_95:\n        /* \"#utility.yul\":2049:2074   */\n      swap2\n      pop\n        /* \"#utility.yul\":2088:2108   */\n      tag_96\n        /* \"#utility.yul\":2106:2107   */\n      dup4\n        /* \"#utility.yul\":2088:2108   */\n      tag_53\n      jump\t// in\n    tag_96:\n        /* \"#utility.yul\":2083:2108   */\n      swap3\n      pop\n        /* \"#utility.yul\":2132:2133   */\n      dup3\n        /* \"#utility.yul\":2129:2130   */\n      dup3\n        /* \"#utility.yul\":2125:2134   */\n      sub\n        /* \"#utility.yul\":2117:2134   */\n      swap1\n      pop\n        /* \"#utility.yul\":2156:2157   */\n      dup2\n        /* \"#utility.yul\":2150:2154   */\n      dup2\n        /* \"#utility.yul\":2147:2158   */\n      gt\n        /* \"#utility.yul\":2144:2181   */\n      iszero\n      tag_97\n      jumpi\n        /* \"#utility.yul\":2161:2179   */\n      tag_98\n      tag_62\n      jump\t// in\n    tag_98:\n        /* \"#utility.yul\":2144:2181   */\n    tag_97:\n        /* \"#utility.yul\":1994:2188   */\n      swap3\n      swap2\n      pop\n      pop\n      jump\t// out\n        /* \"#utility.yul\":2194:2316   */\n    tag_63:\n        /* \"#utility.yul\":2267:2291   */\n      tag_100\n        /* \"#utility.yul\":2285:2290   */\n      dup2\n        /* \"#utility.yul\":2267:2291   */\n      tag_53\n      jump\t// in\n    tag_100:\n        /* \"#utility.yul\":2260:2265   */\n      dup2\n        /* \"#utility.yul\":2257:2292   */\n      eq\n        /* \"#utility.yul\":2247:2310   */\n      tag_101\n      jumpi\n        /* \"#utility.yul\":2306:2307   */\n      0x00\n        /* \"#utility.yul\":2303:2304   */\n      dup1\n        /* \"#utility.yul\":2296:2308   */\n      revert\n        /* \"#utility.yul\":2247:2310   */\n    tag_101:\n        /* \"#utility.yul\":2194:2316   */\n      pop\n      jump\t// out\n        /* \"#utility.yul\":2322:2465   */\n    tag_64:\n        /* \"#utility.yul\":2379:2384   */\n      0x00\n        /* \"#utility.yul\":2410:2416   */\n      dup2\n        /* \"#utility.yul\":2404:2417   */\n      mload\n        /* \"#utility.yul\":2395:2417   */\n      swap1\n      pop\n        /* \"#utility.yul\":2426:2459   */\n      tag_103\n        /* \"#utility.yul\":2453:2458   */\n      dup2\n        /* \"#utility.yul\":2426:2459   */\n      tag_63\n      jump\t// in\n    tag_103:\n        /* \"#utility.yul\":2322:2465   */\n      swap3\n      swap2\n      pop\n      pop\n      jump\t// out\n        /* \"#utility.yul\":2471:2822   */\n    tag_43:\n        /* \"#utility.yul\":2541:2547   */\n      0x00\n        /* \"#utility.yul\":2590:2592   */\n      0x20\n        /* \"#utility.yul\":2578:2587   */\n      dup3\n        /* \"#utility.yul\":2569:2576   */\n      dup5\n        /* \"#utility.yul\":2565:2588   */\n      sub\n        /* \"#utility.yul\":2561:2593   */\n      slt\n        /* \"#utility.yul\":2558:2677   */\n      iszero\n      tag_105\n      jumpi\n        /* \"#utility.yul\":2596:2675   */\n      tag_106\n      tag_56\n      jump\t// in\n    tag_106:\n        /* \"#utility.yul\":2558:2677   */\n    tag_105:\n        /* \"#utility.yul\":2716:2717   */\n      0x00\n        /* \"#utility.yul\":2741:2805   */\n      tag_107\n        /* \"#utility.yul\":2797:2804   */\n      dup5\n        /* \"#utility.yul\":2788:2794   */\n      dup3\n        /* \"#utility.yul\":2777:2786   */\n      dup6\n        /* \"#utility.yul\":2773:2795   */\n      add\n        /* \"#utility.yul\":2741:2805   */\n      tag_64\n      jump\t// in\n    tag_107:\n        /* \"#utility.yul\":2731:2805   */\n      swap2\n      pop\n        /* \"#utility.yul\":2687:2815   */\n      pop\n        /* \"#utility.yul\":2471:2822   */\n      swap3\n      swap2\n      pop\n      pop\n      jump\t// out\n        /* \"#utility.yul\":2828:2946   */\n    tag_65:\n        /* \"#utility.yul\":2915:2939   */\n      tag_109\n        /* \"#utility.yul\":2933:2938   */\n      dup2\n        /* \"#utility.yul\":2915:2939   */\n      tag_59\n      jump\t// in\n    tag_109:\n        /* \"#utility.yul\":2910:2913   */\n      dup3\n        /* \"#utility.yul\":2903:2940   */\n      mstore\n        /* \"#utility.yul\":2828:2946   */\n      pop\n      pop\n      jump\t// out\n        /* \"#utility.yul\":2952:3174   */\n    tag_45:\n        /* \"#utility.yul\":3045:3049   */\n      0x00\n        /* \"#utility.yul\":3083:3085   */\n      0x20\n        /* \"#utility.yul\":3072:3081   */\n      dup3\n        /* \"#utility.yul\":3068:3086   */\n      add\n        /* \"#utility.yul\":3060:3086   */\n      swap1\n      pop\n        /* \"#utility.yul\":3096:3167   */\n      tag_111\n        /* \"#utility.yul\":3164:3165   */\n      0x00\n        /* \"#utility.yul\":3153:3162   */\n      dup4\n        /* \"#utility.yul\":3149:3166   */\n      add\n        /* \"#utility.yul\":3140:3146   */\n      dup5\n        /* \"#utility.yul\":3096:3167   */\n      tag_65\n      jump\t// in\n    tag_111:\n        /* \"#utility.yul\":2952:3174   */\n      swap3\n      swap2\n      pop\n      pop\n      jump\t// out\n        /* \"#utility.yul\":3180:3590   */\n    tag_50:\n        /* \"#utility.yul\":3220:3227   */\n      0x00\n        /* \"#utility.yul\":3243:3263   */\n      tag_113\n        /* \"#utility.yul\":3261:3262   */\n      dup3\n        /* \"#utility.yul\":3243:3263   */\n      tag_53\n      jump\t// in\n    tag_113:\n        /* \"#utility.yul\":3238:3263   */\n      swap2\n      pop\n        /* \"#utility.yul\":3277:3297   */\n      tag_114\n        /* \"#utility.yul\":3295:3296   */\n      dup4\n        /* \"#utility.yul\":3277:3297   */\n      tag_53\n      jump\t// in\n    tag_114:\n        /* \"#utility.yul\":3272:3297   */\n      swap3\n      pop\n        /* \"#utility.yul\":3332:3333   */\n      dup3\n        /* \"#utility.yul\":3329:3330   */\n      dup3\n        /* \"#utility.yul\":3325:3334   */\n      mul\n        /* \"#utility.yul\":3354:3384   */\n      tag_115\n        /* \"#utility.yul\":3372:3383   */\n      dup2\n        /* \"#utility.yul\":3354:3384   */\n      tag_53\n      jump\t// in\n    tag_115:\n        /* \"#utility.yul\":3343:3384   */\n      swap2\n      pop\n        /* \"#utility.yul\":3533:3534   */\n      dup3\n        /* \"#utility.yul\":3524:3531   */\n      dup3\n        /* \"#utility.yul\":3520:3535   */\n      div\n        /* \"#utility.yul\":3517:3518   */\n      dup5\n        /* \"#utility.yul\":3514:3536   */\n      eq\n        /* \"#utility.yul\":3494:3495   */\n      dup4\n        /* \"#utility.yul\":3487:3496   */\n      iszero\n        /* \"#utility.yul\":3467:3550   */\n      or\n        /* \"#utility.yul\":3444:3583   */\n      tag_116\n      jumpi\n        /* \"#utility.yul\":3563:3581   */\n      tag_117\n      tag_62\n      jump\t// in\n    tag_117:\n        /* \"#utility.yul\":3444:3583   */\n    tag_116:\n        /* \"#utility.yul\":3228:3590   */\n      pop\n        /* \"#utility.yul\":3180:3590   */\n      swap3\n      swap2\n      pop\n      pop\n      jump\t// out\n        /* \"#utility.yul\":3596:3776   */\n    tag_66:\n        /* \"#utility.yul\":3644:3721   */\n      0x4e487b7100000000000000000000000000000000000000000000000000000000\n        /* \"#utility.yul\":3641:3642   */\n      0x00\n        /* \"#utility.yul\":3634:3722   */\n      mstore\n        /* \"#utility.yul\":3741:3745   */\n      0x12\n        /* \"#utility.yul\":3738:3739   */\n      0x04\n        /* \"#utility.yul\":3731:3746   */\n      mstore\n        /* \"#utility.yul\":3765:3769   */\n      0x24\n        /* \"#utility.yul\":3762:3763   */\n      0x00\n        /* \"#utility.yul\":3755:3770   */\n      revert\n        /* \"#utility.yul\":3782:3967   */\n    tag_52:\n        /* \"#utility.yul\":3822:3823   */\n      0x00\n        /* \"#utility.yul\":3839:3859   */\n      tag_120\n        /* \"#utility.yul\":3857:3858   */\n      dup3\n        /* \"#utility.yul\":3839:3859   */\n      tag_53\n      jump\t// in\n    tag_120:\n        /* \"#utility.yul\":3834:3859   */\n      swap2\n      pop\n        /* \"#utility.yul\":3873:3893   */\n      tag_121\n        /* \"#utility.yul\":3891:3892   */\n      dup4\n        /* \"#utility.yul\":3873:3893   */\n      tag_53\n      jump\t// in\n    tag_121:\n        /* \"#utility.yul\":3868:3893   */\n      swap3\n      pop\n        /* \"#utility.yul\":3912:3913   */\n      dup3\n        /* \"#utility.yul\":3902:3937   */\n      tag_122\n      jumpi\n        /* \"#utility.yul\":3917:3935   */\n      tag_123\n      tag_66\n      jump\t// in\n    tag_123:\n        /* \"#utility.yul\":3902:3937   */\n    tag_122:\n        /* \"#utility.yul\":3959:3960   */\n      dup3\n        /* \"#utility.yul\":3956:3957   */\n      dup3\n        /* \"#utility.yul\":3952:3961   */\n      div\n        /* \"#utility.yul\":3947:3961   */\n      swap1\n      pop\n        /* \"#utility.yul\":3782:3967   */\n      swap3\n      swap2\n      pop\n      pop\n      jump\t// out\n\n    auxdata: 0xa26469706673582212202a1c456b22e9dbae55b53e656dbba1b93d5693b3c5a163276d69060c41930d3864736f6c634300081a0033\n}\n",
				"bytecode": {
					"linkReferences": {},
					"object": "60806040525f805573aec1f48e02cfb822be958b68c7957156eb3f0b6e60015f6101000a81548173ffffffffffffffffffffffffffffffffffffffff021916908373ffffffffffffffffffffffffffffffffffffffff16021790555060015f9054906101000a900473ffffffffffffffffffffffffffffffffffffffff1660025f6101000a81548173ffffffffffffffffffffffffffffffffffffffff021916908373ffffffffffffffffffffffffffffffffffffffff16021790555034801560c6575f80fd5b506106a3806100d45f395ff3fe608060405260043610610049575f3560e01c80631834ef4e1461004d57806338a2ca4014610057578063d0e30db014610081578063d4e932921461008b578063f8b2cb4f14610095575b5f80fd5b6100556100d1565b005b348015610062575f80fd5b5061006b6100ea565b604051610078919061041d565b60405180910390f35b6100896100f2565b005b61009361020d565b005b3480156100a0575f80fd5b506100bb60048036038101906100b69190610494565b6102b9565b6040516100c8919061041d565b60405180910390f35b345f808282546100e191906104ec565b92505081905550565b5f8054905090565b3460035f3373ffffffffffffffffffffffffffffffffffffffff1673ffffffffffffffffffffffffffffffffffffffff1681526020019081526020015f2081905550345f8082825461014491906104ec565b925050819055504260045f3373ffffffffffffffffffffffffffffffffffffffff1673ffffffffffffffffffffffffffffffffffffffff1681526020019081526020015f208190555060025f9054906101000a900473ffffffffffffffffffffffffffffffffffffffff1673ffffffffffffffffffffffffffffffffffffffff16631249c58b346040518263ffffffff1660e01b81526004015f604051808303818588803b1580156101f4575f80fd5b505af1158015610206573d5f803e3d5ffd5b5050505050565b5f3390505f61021b336102b9565b90508173ffffffffffffffffffffffffffffffffffffffff166108fc8290811502906040515f60405180830381858888f19350505050158015610260573d5f803e3d5ffd5b50805f5461026e919061051f565b5f819055505f60035f3373ffffffffffffffffffffffffffffffffffffffff1673ffffffffffffffffffffffffffffffffffffffff1681526020019081526020015f20819055505050565b5f670de0b6b3a764000060025f9054906101000a900473ffffffffffffffffffffffffffffffffffffffff1673ffffffffffffffffffffffffffffffffffffffff1663182df0f56040518163ffffffff1660e01b8152600401602060405180830381865afa15801561032d573d5f803e3d5ffd5b505050506040513d601f19601f82011682018060405250810190610351919061057c565b60025f9054906101000a900473ffffffffffffffffffffffffffffffffffffffff1673ffffffffffffffffffffffffffffffffffffffff166370a08231856040518263ffffffff1660e01b81526004016103ab91906105b6565b602060405180830381865afa1580156103c6573d5f803e3d5ffd5b505050506040513d601f19601f820116820180604052508101906103ea919061057c565b6103f491906105cf565b6103fe919061063d565b9050919050565b5f819050919050565b61041781610405565b82525050565b5f6020820190506104305f83018461040e565b92915050565b5f80fd5b5f73ffffffffffffffffffffffffffffffffffffffff82169050919050565b5f6104638261043a565b9050919050565b61047381610459565b811461047d575f80fd5b50565b5f8135905061048e8161046a565b92915050565b5f602082840312156104a9576104a8610436565b5b5f6104b684828501610480565b91505092915050565b7f4e487b71000000000000000000000000000000000000000000000000000000005f52601160045260245ffd5b5f6104f682610405565b915061050183610405565b9250828201905080821115610519576105186104bf565b5b92915050565b5f61052982610405565b915061053483610405565b925082820390508181111561054c5761054b6104bf565b5b92915050565b61055b81610405565b8114610565575f80fd5b50565b5f8151905061057681610552565b92915050565b5f6020828403121561059157610590610436565b5b5f61059e84828501610568565b91505092915050565b6105b081610459565b82525050565b5f6020820190506105c95f8301846105a7565b92915050565b5f6105d982610405565b91506105e483610405565b92508282026105f281610405565b91508282048414831517610609576106086104bf565b5b5092915050565b7f4e487b71000000000000000000000000000000000000000000000000000000005f52601260045260245ffd5b5f61064782610405565b915061065283610405565b92508261066257610661610610565b5b82820490509291505056fea26469706673582212202a1c456b22e9dbae55b53e656dbba1b93d5693b3c5a163276d69060c41930d3864736f6c634300081a0033",
					"opcodes": "PUSH1 0x80 PUSH1 0x40 MSTORE PUSH0 DUP1 SSTORE PUSH20 0xAEC1F48E02CFB822BE958B68C7957156EB3F0B6E PUSH1 0x1 PUSH0 PUSH2 0x100 EXP DUP2 SLOAD DUP2 PUSH20 0xFFFFFFFFFFFFFFFFFFFFFFFFFFFFFFFFFFFFFFFF MUL NOT AND SWAP1 DUP4 PUSH20 0xFFFFFFFFFFFFFFFFFFFFFFFFFFFFFFFFFFFFFFFF AND MUL OR SWAP1 SSTORE POP PUSH1 0x1 PUSH0 SWAP1 SLOAD SWAP1 PUSH2 0x100 EXP SWAP1 DIV PUSH20 0xFFFFFFFFFFFFFFFFFFFFFFFFFFFFFFFFFFFFFFFF AND PUSH1 0x2 PUSH0 PUSH2 0x100 EXP DUP2 SLOAD DUP2 PUSH20 0xFFFFFFFFFFFFFFFFFFFFFFFFFFFFFFFFFFFFFFFF MUL NOT AND SWAP1 DUP4 PUSH20 0xFFFFFFFFFFFFFFFFFFFFFFFFFFFFFFFFFFFFFFFF AND MUL OR SWAP1 SSTORE POP CALLVALUE DUP1 ISZERO PUSH1 0xC6 JUMPI PUSH0 DUP1 REVERT JUMPDEST POP PUSH2 0x6A3 DUP1 PUSH2 0xD4 PUSH0 CODECOPY PUSH0 RETURN INVALID PUSH1 0x80 PUSH1 0x40 MSTORE PUSH1 0x4 CALLDATASIZE LT PUSH2 0x49 JUMPI PUSH0 CALLDATALOAD PUSH1 0xE0 SHR DUP1 PUSH4 0x1834EF4E EQ PUSH2 0x4D JUMPI DUP1 PUSH4 0x38A2CA40 EQ PUSH2 0x57 JUMPI DUP1 PUSH4 0xD0E30DB0 EQ PUSH2 0x81 JUMPI DUP1 PUSH4 0xD4E93292 EQ PUSH2 0x8B JUMPI DUP1 PUSH4 0xF8B2CB4F EQ PUSH2 0x95 JUMPI JUMPDEST PUSH0 DUP1 REVERT JUMPDEST PUSH2 0x55 PUSH2 0xD1 JUMP JUMPDEST STOP JUMPDEST CALLVALUE DUP1 ISZERO PUSH2 0x62 JUMPI PUSH0 DUP1 REVERT JUMPDEST POP PUSH2 0x6B PUSH2 0xEA JUMP JUMPDEST PUSH1 0x40 MLOAD PUSH2 0x78 SWAP2 SWAP1 PUSH2 0x41D JUMP JUMPDEST PUSH1 0x40 MLOAD DUP1 SWAP2 SUB SWAP1 RETURN JUMPDEST PUSH2 0x89 PUSH2 0xF2 JUMP JUMPDEST STOP JUMPDEST PUSH2 0x93 PUSH2 0x20D JUMP JUMPDEST STOP JUMPDEST CALLVALUE DUP1 ISZERO PUSH2 0xA0 JUMPI PUSH0 DUP1 REVERT JUMPDEST POP PUSH2 0xBB PUSH1 0x4 DUP1 CALLDATASIZE SUB DUP2 ADD SWAP1 PUSH2 0xB6 SWAP2 SWAP1 PUSH2 0x494 JUMP JUMPDEST PUSH2 0x2B9 JUMP JUMPDEST PUSH1 0x40 MLOAD PUSH2 0xC8 SWAP2 SWAP1 PUSH2 0x41D JUMP JUMPDEST PUSH1 0x40 MLOAD DUP1 SWAP2 SUB SWAP1 RETURN JUMPDEST CALLVALUE PUSH0 DUP1 DUP3 DUP3 SLOAD PUSH2 0xE1 SWAP2 SWAP1 PUSH2 0x4EC JUMP JUMPDEST SWAP3 POP POP DUP2 SWAP1 SSTORE POP JUMP JUMPDEST PUSH0 DUP1 SLOAD SWAP1 POP SWAP1 JUMP JUMPDEST CALLVALUE PUSH1 0x3 PUSH0 CALLER PUSH20 0xFFFFFFFFFFFFFFFFFFFFFFFFFFFFFFFFFFFFFFFF AND PUSH20 0xFFFFFFFFFFFFFFFFFFFFFFFFFFFFFFFFFFFFFFFF AND DUP2 MSTORE PUSH1 0x20 ADD SWAP1 DUP2 MSTORE PUSH1 0x20 ADD PUSH0 KECCAK256 DUP2 SWAP1 SSTORE POP CALLVALUE PUSH0 DUP1 DUP3 DUP3 SLOAD PUSH2 0x144 SWAP2 SWAP1 PUSH2 0x4EC JUMP JUMPDEST SWAP3 POP POP DUP2 SWAP1 SSTORE POP TIMESTAMP PUSH1 0x4 PUSH0 CALLER PUSH20 0xFFFFFFFFFFFFFFFFFFFFFFFFFFFFFFFFFFFFFFFF AND PUSH20 0xFFFFFFFFFFFFFFFFFFFFFFFFFFFFFFFFFFFFFFFF AND DUP2 MSTORE PUSH1 0x20 ADD SWAP1 DUP2 MSTORE PUSH1 0x20 ADD PUSH0 KECCAK256 DUP2 SWAP1 SSTORE POP PUSH1 0x2 PUSH0 SWAP1 SLOAD SWAP1 PUSH2 0x100 EXP SWAP1 DIV PUSH20 0xFFFFFFFFFFFFFFFFFFFFFFFFFFFFFFFFFFFFFFFF AND PUSH20 0xFFFFFFFFFFFFFFFFFFFFFFFFFFFFFFFFFFFFFFFF AND PUSH4 0x1249C58B CALLVALUE PUSH1 0x40 MLOAD DUP3 PUSH4 0xFFFFFFFF AND PUSH1 0xE0 SHL DUP2 MSTORE PUSH1 0x4 ADD PUSH0 PUSH1 0x40 MLOAD DUP1 DUP4 SUB DUP2 DUP6 DUP9 DUP1 EXTCODESIZE ISZERO DUP1 ISZERO PUSH2 0x1F4 JUMPI PUSH0 DUP1 REVERT JUMPDEST POP GAS CALL ISZERO DUP1 ISZERO PUSH2 0x206 JUMPI RETURNDATASIZE PUSH0 DUP1 RETURNDATACOPY RETURNDATASIZE PUSH0 REVERT JUMPDEST POP POP POP POP POP JUMP JUMPDEST PUSH0 CALLER SWAP1 POP PUSH0 PUSH2 0x21B CALLER PUSH2 0x2B9 JUMP JUMPDEST SWAP1 POP DUP2 PUSH20 0xFFFFFFFFFFFFFFFFFFFFFFFFFFFFFFFFFFFFFFFF AND PUSH2 0x8FC DUP3 SWAP1 DUP2 ISZERO MUL SWAP1 PUSH1 0x40 MLOAD PUSH0 PUSH1 0x40 MLOAD DUP1 DUP4 SUB DUP2 DUP6 DUP9 DUP9 CALL SWAP4 POP POP POP POP ISZERO DUP1 ISZERO PUSH2 0x260 JUMPI RETURNDATASIZE PUSH0 DUP1 RETURNDATACOPY RETURNDATASIZE PUSH0 REVERT JUMPDEST POP DUP1 PUSH0 SLOAD PUSH2 0x26E SWAP2 SWAP1 PUSH2 0x51F JUMP JUMPDEST PUSH0 DUP2 SWAP1 SSTORE POP PUSH0 PUSH1 0x3 PUSH0 CALLER PUSH20 0xFFFFFFFFFFFFFFFFFFFFFFFFFFFFFFFFFFFFFFFF AND PUSH20 0xFFFFFFFFFFFFFFFFFFFFFFFFFFFFFFFFFFFFFFFF AND DUP2 MSTORE PUSH1 0x20 ADD SWAP1 DUP2 MSTORE PUSH1 0x20 ADD PUSH0 KECCAK256 DUP2 SWAP1 SSTORE POP POP POP JUMP JUMPDEST PUSH0 PUSH8 0xDE0B6B3A7640000 PUSH1 0x2 PUSH0 SWAP1 SLOAD SWAP1 PUSH2 0x100 EXP SWAP1 DIV PUSH20 0xFFFFFFFFFFFFFFFFFFFFFFFFFFFFFFFFFFFFFFFF AND PUSH20 0xFFFFFFFFFFFFFFFFFFFFFFFFFFFFFFFFFFFFFFFF AND PUSH4 0x182DF0F5 PUSH1 0x40 MLOAD DUP2 PUSH4 0xFFFFFFFF AND PUSH1 0xE0 SHL DUP2 MSTORE PUSH1 0x4 ADD PUSH1 0x20 PUSH1 0x40 MLOAD DUP1 DUP4 SUB DUP2 DUP7 GAS STATICCALL ISZERO DUP1 ISZERO PUSH2 0x32D JUMPI RETURNDATASIZE PUSH0 DUP1 RETURNDATACOPY RETURNDATASIZE PUSH0 REVERT JUMPDEST POP POP POP POP PUSH1 0x40 MLOAD RETURNDATASIZE PUSH1 0x1F NOT PUSH1 0x1F DUP3 ADD AND DUP3 ADD DUP1 PUSH1 0x40 MSTORE POP DUP2 ADD SWAP1 PUSH2 0x351 SWAP2 SWAP1 PUSH2 0x57C JUMP JUMPDEST PUSH1 0x2 PUSH0 SWAP1 SLOAD SWAP1 PUSH2 0x100 EXP SWAP1 DIV PUSH20 0xFFFFFFFFFFFFFFFFFFFFFFFFFFFFFFFFFFFFFFFF AND PUSH20 0xFFFFFFFFFFFFFFFFFFFFFFFFFFFFFFFFFFFFFFFF AND PUSH4 0x70A08231 DUP6 PUSH1 0x40 MLOAD DUP3 PUSH4 0xFFFFFFFF AND PUSH1 0xE0 SHL DUP2 MSTORE PUSH1 0x4 ADD PUSH2 0x3AB SWAP2 SWAP1 PUSH2 0x5B6 JUMP JUMPDEST PUSH1 0x20 PUSH1 0x40 MLOAD DUP1 DUP4 SUB DUP2 DUP7 GAS STATICCALL ISZERO DUP1 ISZERO PUSH2 0x3C6 JUMPI RETURNDATASIZE PUSH0 DUP1 RETURNDATACOPY RETURNDATASIZE PUSH0 REVERT JUMPDEST POP POP POP POP PUSH1 0x40 MLOAD RETURNDATASIZE PUSH1 0x1F NOT PUSH1 0x1F DUP3 ADD AND DUP3 ADD DUP1 PUSH1 0x40 MSTORE POP DUP2 ADD SWAP1 PUSH2 0x3EA SWAP2 SWAP1 PUSH2 0x57C JUMP JUMPDEST PUSH2 0x3F4 SWAP2 SWAP1 PUSH2 0x5CF JUMP JUMPDEST PUSH2 0x3FE SWAP2 SWAP1 PUSH2 0x63D JUMP JUMPDEST SWAP1 POP SWAP2 SWAP1 POP JUMP JUMPDEST PUSH0 DUP2 SWAP1 POP SWAP2 SWAP1 POP JUMP JUMPDEST PUSH2 0x417 DUP2 PUSH2 0x405 JUMP JUMPDEST DUP3 MSTORE POP POP JUMP JUMPDEST PUSH0 PUSH1 0x20 DUP3 ADD SWAP1 POP PUSH2 0x430 PUSH0 DUP4 ADD DUP5 PUSH2 0x40E JUMP JUMPDEST SWAP3 SWAP2 POP POP JUMP JUMPDEST PUSH0 DUP1 REVERT JUMPDEST PUSH0 PUSH20 0xFFFFFFFFFFFFFFFFFFFFFFFFFFFFFFFFFFFFFFFF DUP3 AND SWAP1 POP SWAP2 SWAP1 POP JUMP JUMPDEST PUSH0 PUSH2 0x463 DUP3 PUSH2 0x43A JUMP JUMPDEST SWAP1 POP SWAP2 SWAP1 POP JUMP JUMPDEST PUSH2 0x473 DUP2 PUSH2 0x459 JUMP JUMPDEST DUP2 EQ PUSH2 0x47D JUMPI PUSH0 DUP1 REVERT JUMPDEST POP JUMP JUMPDEST PUSH0 DUP2 CALLDATALOAD SWAP1 POP PUSH2 0x48E DUP2 PUSH2 0x46A JUMP JUMPDEST SWAP3 SWAP2 POP POP JUMP JUMPDEST PUSH0 PUSH1 0x20 DUP3 DUP5 SUB SLT ISZERO PUSH2 0x4A9 JUMPI PUSH2 0x4A8 PUSH2 0x436 JUMP JUMPDEST JUMPDEST PUSH0 PUSH2 0x4B6 DUP5 DUP3 DUP6 ADD PUSH2 0x480 JUMP JUMPDEST SWAP2 POP POP SWAP3 SWAP2 POP POP JUMP JUMPDEST PUSH32 0x4E487B7100000000000000000000000000000000000000000000000000000000 PUSH0 MSTORE PUSH1 0x11 PUSH1 0x4 MSTORE PUSH1 0x24 PUSH0 REVERT JUMPDEST PUSH0 PUSH2 0x4F6 DUP3 PUSH2 0x405 JUMP JUMPDEST SWAP2 POP PUSH2 0x501 DUP4 PUSH2 0x405 JUMP JUMPDEST SWAP3 POP DUP3 DUP3 ADD SWAP1 POP DUP1 DUP3 GT ISZERO PUSH2 0x519 JUMPI PUSH2 0x518 PUSH2 0x4BF JUMP JUMPDEST JUMPDEST SWAP3 SWAP2 POP POP JUMP JUMPDEST PUSH0 PUSH2 0x529 DUP3 PUSH2 0x405 JUMP JUMPDEST SWAP2 POP PUSH2 0x534 DUP4 PUSH2 0x405 JUMP JUMPDEST SWAP3 POP DUP3 DUP3 SUB SWAP1 POP DUP2 DUP2 GT ISZERO PUSH2 0x54C JUMPI PUSH2 0x54B PUSH2 0x4BF JUMP JUMPDEST JUMPDEST SWAP3 SWAP2 POP POP JUMP JUMPDEST PUSH2 0x55B DUP2 PUSH2 0x405 JUMP JUMPDEST DUP2 EQ PUSH2 0x565 JUMPI PUSH0 DUP1 REVERT JUMPDEST POP JUMP JUMPDEST PUSH0 DUP2 MLOAD SWAP1 POP PUSH2 0x576 DUP2 PUSH2 0x552 JUMP JUMPDEST SWAP3 SWAP2 POP POP JUMP JUMPDEST PUSH0 PUSH1 0x20 DUP3 DUP5 SUB SLT ISZERO PUSH2 0x591 JUMPI PUSH2 0x590 PUSH2 0x436 JUMP JUMPDEST JUMPDEST PUSH0 PUSH2 0x59E DUP5 DUP3 DUP6 ADD PUSH2 0x568 JUMP JUMPDEST SWAP2 POP POP SWAP3 SWAP2 POP POP JUMP JUMPDEST PUSH2 0x5B0 DUP2 PUSH2 0x459 JUMP JUMPDEST DUP3 MSTORE POP POP JUMP JUMPDEST PUSH0 PUSH1 0x20 DUP3 ADD SWAP1 POP PUSH2 0x5C9 PUSH0 DUP4 ADD DUP5 PUSH2 0x5A7 JUMP JUMPDEST SWAP3 SWAP2 POP POP JUMP JUMPDEST PUSH0 PUSH2 0x5D9 DUP3 PUSH2 0x405 JUMP JUMPDEST SWAP2 POP PUSH2 0x5E4 DUP4 PUSH2 0x405 JUMP JUMPDEST SWAP3 POP DUP3 DUP3 MUL PUSH2 0x5F2 DUP2 PUSH2 0x405 JUMP JUMPDEST SWAP2 POP DUP3 DUP3 DIV DUP5 EQ DUP4 ISZERO OR PUSH2 0x609 JUMPI PUSH2 0x608 PUSH2 0x4BF JUMP JUMPDEST JUMPDEST POP SWAP3 SWAP2 POP POP JUMP JUMPDEST PUSH32 0x4E487B7100000000000000000000000000000000000000000000000000000000 PUSH0 MSTORE PUSH1 0x12 PUSH1 0x4 MSTORE PUSH1 0x24 PUSH0 REVERT JUMPDEST PUSH0 PUSH2 0x647 DUP3 PUSH2 0x405 JUMP JUMPDEST SWAP2 POP PUSH2 0x652 DUP4 PUSH2 0x405 JUMP JUMPDEST SWAP3 POP DUP3 PUSH2 0x662 JUMPI PUSH2 0x661 PUSH2 0x610 JUMP JUMPDEST JUMPDEST DUP3 DUP3 DIV SWAP1 POP SWAP3 SWAP2 POP POP JUMP INVALID LOG2 PUSH5 0x6970667358 0x22 SLT KECCAK256 0x2A SHR GASLIMIT PUSH12 0x22E9DBAE55B53E656DBBA1B9 RETURNDATASIZE JUMP SWAP4 0xB3 0xC5 LOG1 PUSH4 0x276D6906 0xC COINBASE SWAP4 0xD CODESIZE PUSH5 0x736F6C6343 STOP ADDMOD BYTE STOP CALLER "
				},
				"gasEstimates": {
					"creation": {
						"codeDepositCost": "339800",
						"executionCost": "56050",
						"totalCost": "395850"
					},
					"external": {
						"addMoneyToContract()": "infinite",
						"deposit()": "infinite",
						"getBalance(address)": "infinite",
						"getTotalBankBalance()": "2432",
						"withdrawal()": "infinite"
					}
				},
				"methodIdentifiers": {
					"addMoneyToContract()": "1834ef4e",
					"deposit()": "d0e30db0",
					"getBalance(address)": "f8b2cb4f",
					"getTotalBankBalance()": "38a2ca40",
					"withdrawal()": "d4e93292"
				}
			},
			"storageLayout": {
				"storage": [
					{
						"astId": 27,
						"contract": "contracts/ArifBank.sol:ArifBank",
						"label": "totalBankBalance",
						"offset": 0,
						"slot": "0",
						"type": "t_uint256"
					},
					{
						"astId": 30,
						"contract": "contracts/ArifBank.sol:ArifBank",
						"label": "COMPOUND_CETH_ADDRESS",
						"offset": 0,
						"slot": "1",
						"type": "t_address"
					},
					{
						"astId": 36,
						"contract": "contracts/ArifBank.sol:ArifBank",
						"label": "ceth",
						"offset": 0,
						"slot": "2",
						"type": "t_contract(cETH)24"
					},
					{
						"astId": 48,
						"contract": "contracts/ArifBank.sol:ArifBank",
						"label": "balances",
						"offset": 0,
						"slot": "3",
						"type": "t_mapping(t_address,t_uint256)"
					},
					{
						"astId": 52,
						"contract": "contracts/ArifBank.sol:ArifBank",
						"label": "depositTimeStamp",
						"offset": 0,
						"slot": "4",
						"type": "t_mapping(t_address,t_uint256)"
					}
				],
				"types": {
					"t_address": {
						"encoding": "inplace",
						"label": "address",
						"numberOfBytes": "20"
					},
					"t_contract(cETH)24": {
						"encoding": "inplace",
						"label": "contract cETH",
						"numberOfBytes": "20"
					},
					"t_mapping(t_address,t_uint256)": {
						"encoding": "mapping",
						"key": "t_address",
						"label": "mapping(address => uint256)",
						"numberOfBytes": "32",
						"value": "t_uint256"
					},
					"t_uint256": {
						"encoding": "inplace",
						"label": "uint256",
						"numberOfBytes": "32"
					}
				}
			},
			"userdoc": {
				"kind": "user",
				"methods": {},
				"version": 1
			}
		}
	}
}