{
	"data": {
		"bytecode": {
			"linkReferences": {},
			"object": "60806040525f80553480156011575f80fd5b506104ef8061001f5f395ff3fe608060405260043610610049575f3560e01c80631834ef4e1461004d57806338a2ca4014610057578063d0e30db014610081578063d4e932921461008b578063f8b2cb4f14610095575b5f80fd5b6100556100d1565b005b348015610062575f80fd5b5061006b6100ea565b60405161007891906102e6565b60405180910390f35b6100896100f2565b005b61009361014d565b005b3480156100a0575f80fd5b506100bb60048036038101906100b6919061035d565b6101f9565b6040516100c891906102e6565b60405180910390f35b345f808282546100e191906103b5565b92505081905550565b5f8054905090565b3460015f3373ffffffffffffffffffffffffffffffffffffffff1673ffffffffffffffffffffffffffffffffffffffff1681526020019081526020015f2081905550345f8082825461014491906103b5565b92505081905550565b5f3390505f61015b336101f9565b90508173ffffffffffffffffffffffffffffffffffffffff166108fc8290811502906040515f60405180830381858888f193505050501580156101a0573d5f803e3d5ffd5b50805f546101ae91906103e8565b5f819055505f60015f3373ffffffffffffffffffffffffffffffffffffffff1673ffffffffffffffffffffffffffffffffffffffff1681526020019081526020015f20819055505050565b5f8060015f8473ffffffffffffffffffffffffffffffffffffffff1673ffffffffffffffffffffffffffffffffffffffff1681526020019081526020015f205490505f60025f8573ffffffffffffffffffffffffffffffffffffffff1673ffffffffffffffffffffffffffffffffffffffff1681526020019081526020015f20544261028591906103e8565b9050600163bbf81e008260078561029c919061041b565b6102a6919061041b565b6102b09190610489565b836102bb91906103b5565b6102c591906103b5565b92505050919050565b5f819050919050565b6102e0816102ce565b82525050565b5f6020820190506102f95f8301846102d7565b92915050565b5f80fd5b5f73ffffffffffffffffffffffffffffffffffffffff82169050919050565b5f61032c82610303565b9050919050565b61033c81610322565b8114610346575f80fd5b50565b5f8135905061035781610333565b92915050565b5f60208284031215610372576103716102ff565b5b5f61037f84828501610349565b91505092915050565b7f4e487b71000000000000000000000000000000000000000000000000000000005f52601160045260245ffd5b5f6103bf826102ce565b91506103ca836102ce565b92508282019050808211156103e2576103e1610388565b5b92915050565b5f6103f2826102ce565b91506103fd836102ce565b925082820390508181111561041557610414610388565b5b92915050565b5f610425826102ce565b9150610430836102ce565b925082820261043e816102ce565b9150828204841483151761045557610454610388565b5b5092915050565b7f4e487b71000000000000000000000000000000000000000000000000000000005f52601260045260245ffd5b5f610493826102ce565b915061049e836102ce565b9250826104ae576104ad61045c565b5b82820490509291505056fea26469706673582212208a8df8a310b8708cd2f811fce58406cb050db50745374d4c44bab8cfd6e0b70364736f6c634300081a0033",
			"opcodes": "PUSH1 0x80 PUSH1 0x40 MSTORE PUSH0 DUP1 SSTORE CALLVALUE DUP1 ISZERO PUSH1 0x11 JUMPI PUSH0 DUP1 REVERT JUMPDEST POP PUSH2 0x4EF DUP1 PUSH2 0x1F PUSH0 CODECOPY PUSH0 RETURN INVALID PUSH1 0x80 PUSH1 0x40 MSTORE PUSH1 0x4 CALLDATASIZE LT PUSH2 0x49 JUMPI PUSH0 CALLDATALOAD PUSH1 0xE0 SHR DUP1 PUSH4 0x1834EF4E EQ PUSH2 0x4D JUMPI DUP1 PUSH4 0x38A2CA40 EQ PUSH2 0x57 JUMPI DUP1 PUSH4 0xD0E30DB0 EQ PUSH2 0x81 JUMPI DUP1 PUSH4 0xD4E93292 EQ PUSH2 0x8B JUMPI DUP1 PUSH4 0xF8B2CB4F EQ PUSH2 0x95 JUMPI JUMPDEST PUSH0 DUP1 REVERT JUMPDEST PUSH2 0x55 PUSH2 0xD1 JUMP JUMPDEST STOP JUMPDEST CALLVALUE DUP1 ISZERO PUSH2 0x62 JUMPI PUSH0 DUP1 REVERT JUMPDEST POP PUSH2 0x6B PUSH2 0xEA JUMP JUMPDEST PUSH1 0x40 MLOAD PUSH2 0x78 SWAP2 SWAP1 PUSH2 0x2E6 JUMP JUMPDEST PUSH1 0x40 MLOAD DUP1 SWAP2 SUB SWAP1 RETURN JUMPDEST PUSH2 0x89 PUSH2 0xF2 JUMP JUMPDEST STOP JUMPDEST PUSH2 0x93 PUSH2 0x14D JUMP JUMPDEST STOP JUMPDEST CALLVALUE DUP1 ISZERO PUSH2 0xA0 JUMPI PUSH0 DUP1 REVERT JUMPDEST POP PUSH2 0xBB PUSH1 0x4 DUP1 CALLDATASIZE SUB DUP2 ADD SWAP1 PUSH2 0xB6 SWAP2 SWAP1 PUSH2 0x35D JUMP JUMPDEST PUSH2 0x1F9 JUMP JUMPDEST PUSH1 0x40 MLOAD PUSH2 0xC8 SWAP2 SWAP1 PUSH2 0x2E6 JUMP JUMPDEST PUSH1 0x40 MLOAD DUP1 SWAP2 SUB SWAP1 RETURN JUMPDEST CALLVALUE PUSH0 DUP1 DUP3 DUP3 SLOAD PUSH2 0xE1 SWAP2 SWAP1 PUSH2 0x3B5 JUMP JUMPDEST SWAP3 POP POP DUP2 SWAP1 SSTORE POP JUMP JUMPDEST PUSH0 DUP1 SLOAD SWAP1 POP SWAP1 JUMP JUMPDEST CALLVALUE PUSH1 0x1 PUSH0 CALLER PUSH20 0xFFFFFFFFFFFFFFFFFFFFFFFFFFFFFFFFFFFFFFFF AND PUSH20 0xFFFFFFFFFFFFFFFFFFFFFFFFFFFFFFFFFFFFFFFF AND DUP2 MSTORE PUSH1 0x20 ADD SWAP1 DUP2 MSTORE PUSH1 0x20 ADD PUSH0 KECCAK256 DUP2 SWAP1 SSTORE POP CALLVALUE PUSH0 DUP1 DUP3 DUP3 SLOAD PUSH2 0x144 SWAP2 SWAP1 PUSH2 0x3B5 JUMP JUMPDEST SWAP3 POP POP DUP2 SWAP1 SSTORE POP JUMP JUMPDEST PUSH0 CALLER SWAP1 POP PUSH0 PUSH2 0x15B CALLER PUSH2 0x1F9 JUMP JUMPDEST SWAP1 POP DUP2 PUSH20 0xFFFFFFFFFFFFFFFFFFFFFFFFFFFFFFFFFFFFFFFF AND PUSH2 0x8FC DUP3 SWAP1 DUP2 ISZERO MUL SWAP1 PUSH1 0x40 MLOAD PUSH0 PUSH1 0x40 MLOAD DUP1 DUP4 SUB DUP2 DUP6 DUP9 DUP9 CALL SWAP4 POP POP POP POP ISZERO DUP1 ISZERO PUSH2 0x1A0 JUMPI RETURNDATASIZE PUSH0 DUP1 RETURNDATACOPY RETURNDATASIZE PUSH0 REVERT JUMPDEST POP DUP1 PUSH0 SLOAD PUSH2 0x1AE SWAP2 SWAP1 PUSH2 0x3E8 JUMP JUMPDEST PUSH0 DUP2 SWAP1 SSTORE POP PUSH0 PUSH1 0x1 PUSH0 CALLER PUSH20 0xFFFFFFFFFFFFFFFFFFFFFFFFFFFFFFFFFFFFFFFF AND PUSH20 0xFFFFFFFFFFFFFFFFFFFFFFFFFFFFFFFFFFFFFFFF AND DUP2 MSTORE PUSH1 0x20 ADD SWAP1 DUP2 MSTORE PUSH1 0x20 ADD PUSH0 KECCAK256 DUP2 SWAP1 SSTORE POP POP POP JUMP JUMPDEST PUSH0 DUP1 PUSH1 0x1 PUSH0 DUP5 PUSH20 0xFFFFFFFFFFFFFFFFFFFFFFFFFFFFFFFFFFFFFFFF AND PUSH20 0xFFFFFFFFFFFFFFFFFFFFFFFFFFFFFFFFFFFFFFFF AND DUP2 MSTORE PUSH1 0x20 ADD SWAP1 DUP2 MSTORE PUSH1 0x20 ADD PUSH0 KECCAK256 SLOAD SWAP1 POP PUSH0 PUSH1 0x2 PUSH0 DUP6 PUSH20 0xFFFFFFFFFFFFFFFFFFFFFFFFFFFFFFFFFFFFFFFF AND PUSH20 0xFFFFFFFFFFFFFFFFFFFFFFFFFFFFFFFFFFFFFFFF AND DUP2 MSTORE PUSH1 0x20 ADD SWAP1 DUP2 MSTORE PUSH1 0x20 ADD PUSH0 KECCAK256 SLOAD TIMESTAMP PUSH2 0x285 SWAP2 SWAP1 PUSH2 0x3E8 JUMP JUMPDEST SWAP1 POP PUSH1 0x1 PUSH4 0xBBF81E00 DUP3 PUSH1 0x7 DUP6 PUSH2 0x29C SWAP2 SWAP1 PUSH2 0x41B JUMP JUMPDEST PUSH2 0x2A6 SWAP2 SWAP1 PUSH2 0x41B JUMP JUMPDEST PUSH2 0x2B0 SWAP2 SWAP1 PUSH2 0x489 JUMP JUMPDEST DUP4 PUSH2 0x2BB SWAP2 SWAP1 PUSH2 0x3B5 JUMP JUMPDEST PUSH2 0x2C5 SWAP2 SWAP1 PUSH2 0x3B5 JUMP JUMPDEST SWAP3 POP POP POP SWAP2 SWAP1 POP JUMP JUMPDEST PUSH0 DUP2 SWAP1 POP SWAP2 SWAP1 POP JUMP JUMPDEST PUSH2 0x2E0 DUP2 PUSH2 0x2CE JUMP JUMPDEST DUP3 MSTORE POP POP JUMP JUMPDEST PUSH0 PUSH1 0x20 DUP3 ADD SWAP1 POP PUSH2 0x2F9 PUSH0 DUP4 ADD DUP5 PUSH2 0x2D7 JUMP JUMPDEST SWAP3 SWAP2 POP POP JUMP JUMPDEST PUSH0 DUP1 REVERT JUMPDEST PUSH0 PUSH20 0xFFFFFFFFFFFFFFFFFFFFFFFFFFFFFFFFFFFFFFFF DUP3 AND SWAP1 POP SWAP2 SWAP1 POP JUMP JUMPDEST PUSH0 PUSH2 0x32C DUP3 PUSH2 0x303 JUMP JUMPDEST SWAP1 POP SWAP2 SWAP1 POP JUMP JUMPDEST PUSH2 0x33C DUP2 PUSH2 0x322 JUMP JUMPDEST DUP2 EQ PUSH2 0x346 JUMPI PUSH0 DUP1 REVERT JUMPDEST POP JUMP JUMPDEST PUSH0 DUP2 CALLDATALOAD SWAP1 POP PUSH2 0x357 DUP2 PUSH2 0x333 JUMP JUMPDEST SWAP3 SWAP2 POP POP JUMP JUMPDEST PUSH0 PUSH1 0x20 DUP3 DUP5 SUB SLT ISZERO PUSH2 0x372 JUMPI PUSH2 0x371 PUSH2 0x2FF JUMP JUMPDEST JUMPDEST PUSH0 PUSH2 0x37F DUP5 DUP3 DUP6 ADD PUSH2 0x349 JUMP JUMPDEST SWAP2 POP POP SWAP3 SWAP2 POP POP JUMP JUMPDEST PUSH32 0x4E487B7100000000000000000000000000000000000000000000000000000000 PUSH0 MSTORE PUSH1 0x11 PUSH1 0x4 MSTORE PUSH1 0x24 PUSH0 REVERT JUMPDEST PUSH0 PUSH2 0x3BF DUP3 PUSH2 0x2CE JUMP JUMPDEST SWAP2 POP PUSH2 0x3CA DUP4 PUSH2 0x2CE JUMP JUMPDEST SWAP3 POP DUP3 DUP3 ADD SWAP1 POP DUP1 DUP3 GT ISZERO PUSH2 0x3E2 JUMPI PUSH2 0x3E1 PUSH2 0x388 JUMP JUMPDEST JUMPDEST SWAP3 SWAP2 POP POP JUMP JUMPDEST PUSH0 PUSH2 0x3F2 DUP3 PUSH2 0x2CE JUMP JUMPDEST SWAP2 POP PUSH2 0x3FD DUP4 PUSH2 0x2CE JUMP JUMPDEST SWAP3 POP DUP3 DUP3 SUB SWAP1 POP DUP2 DUP2 GT ISZERO PUSH2 0x415 JUMPI PUSH2 0x414 PUSH2 0x388 JUMP JUMPDEST JUMPDEST SWAP3 SWAP2 POP POP JUMP JUMPDEST PUSH0 PUSH2 0x425 DUP3 PUSH2 0x2CE JUMP JUMPDEST SWAP2 POP PUSH2 0x430 DUP4 PUSH2 0x2CE JUMP JUMPDEST SWAP3 POP DUP3 DUP3 MUL PUSH2 0x43E DUP2 PUSH2 0x2CE JUMP JUMPDEST SWAP2 POP DUP3 DUP3 DIV DUP5 EQ DUP4 ISZERO OR PUSH2 0x455 JUMPI PUSH2 0x454 PUSH2 0x388 JUMP JUMPDEST JUMPDEST POP SWAP3 SWAP2 POP POP JUMP JUMPDEST PUSH32 0x4E487B7100000000000000000000000000000000000000000000000000000000 PUSH0 MSTORE PUSH1 0x12 PUSH1 0x4 MSTORE PUSH1 0x24 PUSH0 REVERT JUMPDEST PUSH0 PUSH2 0x493 DUP3 PUSH2 0x2CE JUMP JUMPDEST SWAP2 POP PUSH2 0x49E DUP4 PUSH2 0x2CE JUMP JUMPDEST SWAP3 POP DUP3 PUSH2 0x4AE JUMPI PUSH2 0x4AD PUSH2 0x45C JUMP JUMPDEST JUMPDEST DUP3 DUP3 DIV SWAP1 POP SWAP3 SWAP2 POP POP JUMP INVALID LOG2 PUSH5 0x6970667358 0x22 SLT KECCAK256 DUP11 DUP14 0xF8 LOG3 LT 0xB8 PUSH17 0x8CD2F811FCE58406CB050DB50745374D4C PREVRANDAO 0xBA 0xB8 0xCF 0xD6 0xE0 0xB7 SUB PUSH5 0x736F6C6343 STOP ADDMOD BYTE STOP CALLER "
		},
		"gasEstimates": {
			"creation": {
				"codeDepositCost": "252600",
				"executionCost": "5297",
				"totalCost": "257897"
			},
			"external": {
				"addMoneyToContract()": "infinite",
				"deposit()": "infinite",
				"getBalance(address)": "infinite",
				"getTotalBankBalance()": "2432",
				"withdrawal()": "infinite"
			}
		},
		"methodIdentifiers": {
			"addMoneyToContract()": "1834ef4e",
			"deposit()": "d0e30db0",
			"getBalance(address)": "f8b2cb4f",
			"getTotalBankBalance()": "38a2ca40",
			"withdrawal()": "d4e93292"
		}
	},
	"abi": [
		{
			"inputs": [],
			"name": "addMoneyToContract",
			"outputs": [],
			"stateMutability": "payable",
			"type": "function"
		},
		{
			"inputs": [],
			"name": "deposit",
			"outputs": [],
			"stateMutability": "payable",
			"type": "function"
		},
		{
			"inputs": [
				{
					"internalType": "address",
					"name": "_userAddress",
					"type": "address"
				}
			],
			"name": "getBalance",
			"outputs": [
				{
					"internalType": "uint256",
					"name": "",
					"type": "uint256"
				}
			],
			"stateMutability": "view",
			"type": "function"
		},
		{
			"inputs": [],
			"name": "getTotalBankBalance",
			"outputs": [
				{
					"internalType": "uint256",
					"name": "",
					"type": "uint256"
				}
			],
			"stateMutability": "view",
			"type": "function"
		},
		{
			"inputs": [],
			"name": "withdrawal",
			"outputs": [],
			"stateMutability": "payable",
			"type": "function"
		}
	]
}