{
	"gist-9818315be422567874850c05f65949d6/contracts/subquest3.sol": {
		"SmartBankAccount": {
			"abi": [
				{
					"inputs": [],
					"name": "addBalance",
					"outputs": [],
					"stateMutability": "payable",
					"type": "function"
				},
				{
					"inputs": [],
					"name": "addMoneyToContract",
					"outputs": [],
					"stateMutability": "payable",
					"type": "function"
				},
				{
					"inputs": [
						{
							"internalType": "address",
							"name": "_userAddress",
							"type": "address"
						}
					],
					"name": "getBalance",
					"outputs": [
						{
							"internalType": "uint256",
							"name": "",
							"type": "uint256"
						}
					],
					"stateMutability": "view",
					"type": "function"
				},
				{
					"inputs": [],
					"name": "getContractBalance",
					"outputs": [
						{
							"internalType": "uint256",
							"name": "",
							"type": "uint256"
						}
					],
					"stateMutability": "view",
					"type": "function"
				},
				{
					"inputs": [],
					"name": "withdraw",
					"outputs": [],
					"stateMutability": "payable",
					"type": "function"
				}
			],
			"devdoc": {
				"kind": "dev",
				"methods": {},
				"version": 1
			},
			"evm": {
				"assembly": "    /* \"gist-9818315be422567874850c05f65949d6/contracts/subquest3.sol\":57:1568  contract SmartBankAccount {... */\n  mstore(0x40, 0x80)\n    /* \"gist-9818315be422567874850c05f65949d6/contracts/subquest3.sol\":118:119  0 */\n  0x00\n    /* \"gist-9818315be422567874850c05f65949d6/contracts/subquest3.sol\":90:119  uint totalContractBalance = 0 */\n  dup1\n  sstore\n    /* \"gist-9818315be422567874850c05f65949d6/contracts/subquest3.sol\":57:1568  contract SmartBankAccount {... */\n  callvalue\n  dup1\n  iszero\n  tag_1\n  jumpi\n  0x00\n  dup1\n  revert\ntag_1:\n  pop\n  dataSize(sub_0)\n  dup1\n  dataOffset(sub_0)\n  0x00\n  codecopy\n  0x00\n  return\nstop\n\nsub_0: assembly {\n        /* \"gist-9818315be422567874850c05f65949d6/contracts/subquest3.sol\":57:1568  contract SmartBankAccount {... */\n      mstore(0x40, 0x80)\n      jumpi(tag_1, lt(calldatasize, 0x04))\n      shr(0xe0, calldataload(0x00))\n      dup1\n      0x1834ef4e\n      eq\n      tag_2\n      jumpi\n      dup1\n      0x3ccfd60b\n      eq\n      tag_3\n      jumpi\n      dup1\n      0x6f9fb98a\n      eq\n      tag_4\n      jumpi\n      dup1\n      0xb163cc38\n      eq\n      tag_5\n      jumpi\n      dup1\n      0xf8b2cb4f\n      eq\n      tag_6\n      jumpi\n    tag_1:\n      0x00\n      dup1\n      revert\n        /* \"gist-9818315be422567874850c05f65949d6/contracts/subquest3.sol\":1466:1561  function addMoneyToContract() public payable {... */\n    tag_2:\n      tag_7\n      tag_8\n      jump\t// in\n    tag_7:\n      stop\n        /* \"gist-9818315be422567874850c05f65949d6/contracts/subquest3.sol\":1039:1431  function withdraw() public payable  {... */\n    tag_3:\n      tag_9\n      tag_10\n      jump\t// in\n    tag_9:\n      stop\n        /* \"gist-9818315be422567874850c05f65949d6/contracts/subquest3.sol\":126:225  function getContractBalance() public view returns(uint){... */\n    tag_4:\n      callvalue\n      dup1\n      iszero\n      tag_11\n      jumpi\n      0x00\n      dup1\n      revert\n    tag_11:\n      pop\n      tag_12\n      tag_13\n      jump\t// in\n    tag_12:\n      mload(0x40)\n      tag_14\n      swap2\n      swap1\n      tag_15\n      jump\t// in\n    tag_14:\n      mload(0x40)\n      dup1\n      swap2\n      sub\n      swap1\n      return\n        /* \"gist-9818315be422567874850c05f65949d6/contracts/subquest3.sol\":384:639  function addBalance() public payable  {... */\n    tag_5:\n      tag_16\n      tag_17\n      jump\t// in\n    tag_16:\n      stop\n        /* \"gist-9818315be422567874850c05f65949d6/contracts/subquest3.sol\":664:1012  function getBalance(address _userAddress) public view returns (uint) {... */\n    tag_6:\n      callvalue\n      dup1\n      iszero\n      tag_18\n      jumpi\n      0x00\n      dup1\n      revert\n    tag_18:\n      pop\n      tag_19\n      0x04\n      dup1\n      calldatasize\n      sub\n      dup2\n      add\n      swap1\n      tag_20\n      swap2\n      swap1\n      tag_21\n      jump\t// in\n    tag_20:\n      tag_22\n      jump\t// in\n    tag_19:\n      mload(0x40)\n      tag_23\n      swap2\n      swap1\n      tag_15\n      jump\t// in\n    tag_23:\n      mload(0x40)\n      dup1\n      swap2\n      sub\n      swap1\n      return\n        /* \"gist-9818315be422567874850c05f65949d6/contracts/subquest3.sol\":1466:1561  function addMoneyToContract() public payable {... */\n    tag_8:\n        /* \"gist-9818315be422567874850c05f65949d6/contracts/subquest3.sol\":1545:1554  msg.value */\n      callvalue\n        /* \"gist-9818315be422567874850c05f65949d6/contracts/subquest3.sol\":1521:1541  totalContractBalance */\n      0x00\n      dup1\n        /* \"gist-9818315be422567874850c05f65949d6/contracts/subquest3.sol\":1521:1554  totalContractBalance += msg.value */\n      dup3\n      dup3\n      sload\n      tag_25\n      swap2\n      swap1\n      tag_26\n      jump\t// in\n    tag_25:\n      swap3\n      pop\n      pop\n      dup2\n      swap1\n      sstore\n      pop\n        /* \"gist-9818315be422567874850c05f65949d6/contracts/subquest3.sol\":1466:1561  function addMoneyToContract() public payable {... */\n      jump\t// out\n        /* \"gist-9818315be422567874850c05f65949d6/contracts/subquest3.sol\":1039:1431  function withdraw() public payable  {... */\n    tag_10:\n        /* \"gist-9818315be422567874850c05f65949d6/contracts/subquest3.sol\":1119:1128  msg.value */\n      callvalue\n        /* \"gist-9818315be422567874850c05f65949d6/contracts/subquest3.sol\":1093:1115  getBalance(msg.sender) */\n      tag_28\n        /* \"gist-9818315be422567874850c05f65949d6/contracts/subquest3.sol\":1104:1114  msg.sender */\n      caller\n        /* \"gist-9818315be422567874850c05f65949d6/contracts/subquest3.sol\":1093:1103  getBalance */\n      tag_22\n        /* \"gist-9818315be422567874850c05f65949d6/contracts/subquest3.sol\":1093:1115  getBalance(msg.sender) */\n      jump\t// in\n    tag_28:\n        /* \"gist-9818315be422567874850c05f65949d6/contracts/subquest3.sol\":1093:1128  getBalance(msg.sender) >= msg.value */\n      lt\n      iszero\n        /* \"gist-9818315be422567874850c05f65949d6/contracts/subquest3.sol\":1085:1154  require(getBalance(msg.sender) >= msg.value , \"insufficient balance\") */\n      tag_29\n      jumpi\n      mload(0x40)\n      0x08c379a000000000000000000000000000000000000000000000000000000000\n      dup2\n      mstore\n      0x04\n      add\n      tag_30\n      swap1\n      tag_31\n      jump\t// in\n    tag_30:\n      mload(0x40)\n      dup1\n      swap2\n      sub\n      swap1\n      revert\n    tag_29:\n        /* \"gist-9818315be422567874850c05f65949d6/contracts/subquest3.sol\":1165:1192  address payable  withdrawTo */\n      0x00\n        /* \"gist-9818315be422567874850c05f65949d6/contracts/subquest3.sol\":1203:1213  msg.sender */\n      caller\n        /* \"gist-9818315be422567874850c05f65949d6/contracts/subquest3.sol\":1165:1214  address payable  withdrawTo = payable(msg.sender) */\n      swap1\n      pop\n        /* \"gist-9818315be422567874850c05f65949d6/contracts/subquest3.sol\":1224:1245  uint amountToTransfer */\n      0x00\n        /* \"gist-9818315be422567874850c05f65949d6/contracts/subquest3.sol\":1248:1270  getBalance(msg.sender) */\n      tag_32\n        /* \"gist-9818315be422567874850c05f65949d6/contracts/subquest3.sol\":1259:1269  msg.sender */\n      caller\n        /* \"gist-9818315be422567874850c05f65949d6/contracts/subquest3.sol\":1248:1258  getBalance */\n      tag_22\n        /* \"gist-9818315be422567874850c05f65949d6/contracts/subquest3.sol\":1248:1270  getBalance(msg.sender) */\n      jump\t// in\n    tag_32:\n        /* \"gist-9818315be422567874850c05f65949d6/contracts/subquest3.sol\":1224:1270  uint amountToTransfer = getBalance(msg.sender) */\n      swap1\n      pop\n        /* \"gist-9818315be422567874850c05f65949d6/contracts/subquest3.sol\":1280:1290  withdrawTo */\n      dup2\n        /* \"gist-9818315be422567874850c05f65949d6/contracts/subquest3.sol\":1280:1299  withdrawTo.transfer */\n      0xffffffffffffffffffffffffffffffffffffffff\n      and\n        /* \"gist-9818315be422567874850c05f65949d6/contracts/subquest3.sol\":1280:1317  withdrawTo.transfer(amountToTransfer) */\n      0x08fc\n        /* \"gist-9818315be422567874850c05f65949d6/contracts/subquest3.sol\":1300:1316  amountToTransfer */\n      dup3\n        /* \"gist-9818315be422567874850c05f65949d6/contracts/subquest3.sol\":1280:1317  withdrawTo.transfer(amountToTransfer) */\n      swap1\n      dup2\n      iszero\n      mul\n      swap1\n      mload(0x40)\n      0x00\n      mload(0x40)\n      dup1\n      dup4\n      sub\n      dup2\n      dup6\n      dup9\n      dup9\n      call\n      swap4\n      pop\n      pop\n      pop\n      pop\n      iszero\n      dup1\n      iszero\n      tag_34\n      jumpi\n      returndatasize\n      0x00\n      dup1\n      returndatacopy\n      revert(0x00, returndatasize)\n    tag_34:\n      pop\n        /* \"gist-9818315be422567874850c05f65949d6/contracts/subquest3.sol\":1374:1390  amountToTransfer */\n      dup1\n        /* \"gist-9818315be422567874850c05f65949d6/contracts/subquest3.sol\":1351:1371  totalContractBalance */\n      sload(0x00)\n        /* \"gist-9818315be422567874850c05f65949d6/contracts/subquest3.sol\":1351:1390  totalContractBalance - amountToTransfer */\n      tag_35\n      swap2\n      swap1\n      tag_36\n      jump\t// in\n    tag_35:\n        /* \"gist-9818315be422567874850c05f65949d6/contracts/subquest3.sol\":1328:1348  totalContractBalance */\n      0x00\n        /* \"gist-9818315be422567874850c05f65949d6/contracts/subquest3.sol\":1328:1390  totalContractBalance = totalContractBalance - amountToTransfer */\n      dup2\n      swap1\n      sstore\n      pop\n        /* \"gist-9818315be422567874850c05f65949d6/contracts/subquest3.sol\":1423:1424  0 */\n      0x00\n        /* \"gist-9818315be422567874850c05f65949d6/contracts/subquest3.sol\":1400:1408  balances */\n      0x01\n        /* \"gist-9818315be422567874850c05f65949d6/contracts/subquest3.sol\":1400:1420  balances[withdrawTo] */\n      0x00\n        /* \"gist-9818315be422567874850c05f65949d6/contracts/subquest3.sol\":1409:1419  withdrawTo */\n      dup5\n        /* \"gist-9818315be422567874850c05f65949d6/contracts/subquest3.sol\":1400:1420  balances[withdrawTo] */\n      0xffffffffffffffffffffffffffffffffffffffff\n      and\n      0xffffffffffffffffffffffffffffffffffffffff\n      and\n      dup2\n      mstore\n      0x20\n      add\n      swap1\n      dup2\n      mstore\n      0x20\n      add\n      0x00\n      keccak256\n        /* \"gist-9818315be422567874850c05f65949d6/contracts/subquest3.sol\":1400:1424  balances[withdrawTo] = 0 */\n      dup2\n      swap1\n      sstore\n      pop\n        /* \"gist-9818315be422567874850c05f65949d6/contracts/subquest3.sol\":1075:1431  {... */\n      pop\n      pop\n        /* \"gist-9818315be422567874850c05f65949d6/contracts/subquest3.sol\":1039:1431  function withdraw() public payable  {... */\n      jump\t// out\n        /* \"gist-9818315be422567874850c05f65949d6/contracts/subquest3.sol\":126:225  function getContractBalance() public view returns(uint){... */\n    tag_13:\n        /* \"gist-9818315be422567874850c05f65949d6/contracts/subquest3.sol\":176:180  uint */\n      0x00\n        /* \"gist-9818315be422567874850c05f65949d6/contracts/subquest3.sol\":198:218  totalContractBalance */\n      dup1\n      sload\n        /* \"gist-9818315be422567874850c05f65949d6/contracts/subquest3.sol\":191:218  return totalContractBalance */\n      swap1\n      pop\n        /* \"gist-9818315be422567874850c05f65949d6/contracts/subquest3.sol\":126:225  function getContractBalance() public view returns(uint){... */\n      swap1\n      jump\t// out\n        /* \"gist-9818315be422567874850c05f65949d6/contracts/subquest3.sol\":384:639  function addBalance() public payable  {... */\n    tag_17:\n        /* \"gist-9818315be422567874850c05f65949d6/contracts/subquest3.sol\":452:453  0 */\n      0x00\n        /* \"gist-9818315be422567874850c05f65949d6/contracts/subquest3.sol\":440:449  msg.value */\n      callvalue\n        /* \"gist-9818315be422567874850c05f65949d6/contracts/subquest3.sol\":440:453  msg.value > 0 */\n      gt\n        /* \"gist-9818315be422567874850c05f65949d6/contracts/subquest3.sol\":432:489  require(msg.value > 0 , \"balance must be greater than 0\") */\n      tag_39\n      jumpi\n      mload(0x40)\n      0x08c379a000000000000000000000000000000000000000000000000000000000\n      dup2\n      mstore\n      0x04\n      add\n      tag_40\n      swap1\n      tag_41\n      jump\t// in\n    tag_40:\n      mload(0x40)\n      dup1\n      swap2\n      sub\n      swap1\n      revert\n    tag_39:\n        /* \"gist-9818315be422567874850c05f65949d6/contracts/subquest3.sol\":523:532  msg.value */\n      callvalue\n        /* \"gist-9818315be422567874850c05f65949d6/contracts/subquest3.sol\":500:508  balances */\n      0x01\n        /* \"gist-9818315be422567874850c05f65949d6/contracts/subquest3.sol\":500:520  balances[msg.sender] */\n      0x00\n        /* \"gist-9818315be422567874850c05f65949d6/contracts/subquest3.sol\":509:519  msg.sender */\n      caller\n        /* \"gist-9818315be422567874850c05f65949d6/contracts/subquest3.sol\":500:520  balances[msg.sender] */\n      0xffffffffffffffffffffffffffffffffffffffff\n      and\n      0xffffffffffffffffffffffffffffffffffffffff\n      and\n      dup2\n      mstore\n      0x20\n      add\n      swap1\n      dup2\n      mstore\n      0x20\n      add\n      0x00\n      keccak256\n        /* \"gist-9818315be422567874850c05f65949d6/contracts/subquest3.sol\":500:532  balances[msg.sender] = msg.value */\n      dup2\n      swap1\n      sstore\n      pop\n        /* \"gist-9818315be422567874850c05f65949d6/contracts/subquest3.sol\":566:575  msg.value */\n      callvalue\n        /* \"gist-9818315be422567874850c05f65949d6/contracts/subquest3.sol\":542:562  totalContractBalance */\n      0x00\n      dup1\n        /* \"gist-9818315be422567874850c05f65949d6/contracts/subquest3.sol\":542:575  totalContractBalance += msg.value */\n      dup3\n      dup3\n      sload\n      tag_42\n      swap2\n      swap1\n      tag_26\n      jump\t// in\n    tag_42:\n      swap3\n      pop\n      pop\n      dup2\n      swap1\n      sstore\n      pop\n        /* \"gist-9818315be422567874850c05f65949d6/contracts/subquest3.sol\":617:632  block.timestamp */\n      timestamp\n        /* \"gist-9818315be422567874850c05f65949d6/contracts/subquest3.sol\":585:602  depositTimestemps */\n      0x02\n        /* \"gist-9818315be422567874850c05f65949d6/contracts/subquest3.sol\":585:614  depositTimestemps[msg.sender] */\n      0x00\n        /* \"gist-9818315be422567874850c05f65949d6/contracts/subquest3.sol\":603:613  msg.sender */\n      caller\n        /* \"gist-9818315be422567874850c05f65949d6/contracts/subquest3.sol\":585:614  depositTimestemps[msg.sender] */\n      0xffffffffffffffffffffffffffffffffffffffff\n      and\n      0xffffffffffffffffffffffffffffffffffffffff\n      and\n      dup2\n      mstore\n      0x20\n      add\n      swap1\n      dup2\n      mstore\n      0x20\n      add\n      0x00\n      keccak256\n        /* \"gist-9818315be422567874850c05f65949d6/contracts/subquest3.sol\":585:632  depositTimestemps[msg.sender] = block.timestamp */\n      dup2\n      swap1\n      sstore\n      pop\n        /* \"gist-9818315be422567874850c05f65949d6/contracts/subquest3.sol\":384:639  function addBalance() public payable  {... */\n      jump\t// out\n        /* \"gist-9818315be422567874850c05f65949d6/contracts/subquest3.sol\":664:1012  function getBalance(address _userAddress) public view returns (uint) {... */\n    tag_22:\n        /* \"gist-9818315be422567874850c05f65949d6/contracts/subquest3.sol\":727:731  uint */\n      0x00\n        /* \"gist-9818315be422567874850c05f65949d6/contracts/subquest3.sol\":743:757  uint principal */\n      dup1\n        /* \"gist-9818315be422567874850c05f65949d6/contracts/subquest3.sol\":760:768  balances */\n      0x01\n        /* \"gist-9818315be422567874850c05f65949d6/contracts/subquest3.sol\":760:782  balances[_userAddress] */\n      0x00\n        /* \"gist-9818315be422567874850c05f65949d6/contracts/subquest3.sol\":769:781  _userAddress */\n      dup5\n        /* \"gist-9818315be422567874850c05f65949d6/contracts/subquest3.sol\":760:782  balances[_userAddress] */\n      0xffffffffffffffffffffffffffffffffffffffff\n      and\n      0xffffffffffffffffffffffffffffffffffffffff\n      and\n      dup2\n      mstore\n      0x20\n      add\n      swap1\n      dup2\n      mstore\n      0x20\n      add\n      0x00\n      keccak256\n      sload\n        /* \"gist-9818315be422567874850c05f65949d6/contracts/subquest3.sol\":743:782  uint principal = balances[_userAddress] */\n      swap1\n      pop\n        /* \"gist-9818315be422567874850c05f65949d6/contracts/subquest3.sol\":792:808  uint timeElapsed */\n      0x00\n        /* \"gist-9818315be422567874850c05f65949d6/contracts/subquest3.sol\":830:847  depositTimestemps */\n      0x02\n        /* \"gist-9818315be422567874850c05f65949d6/contracts/subquest3.sol\":830:861  depositTimestemps[_userAddress] */\n      0x00\n        /* \"gist-9818315be422567874850c05f65949d6/contracts/subquest3.sol\":848:860  _userAddress */\n      dup6\n        /* \"gist-9818315be422567874850c05f65949d6/contracts/subquest3.sol\":830:861  depositTimestemps[_userAddress] */\n      0xffffffffffffffffffffffffffffffffffffffff\n      and\n      0xffffffffffffffffffffffffffffffffffffffff\n      and\n      dup2\n      mstore\n      0x20\n      add\n      swap1\n      dup2\n      mstore\n      0x20\n      add\n      0x00\n      keccak256\n      sload\n        /* \"gist-9818315be422567874850c05f65949d6/contracts/subquest3.sol\":812:827  block.timestamp */\n      timestamp\n        /* \"gist-9818315be422567874850c05f65949d6/contracts/subquest3.sol\":812:861  block.timestamp - depositTimestemps[_userAddress] */\n      tag_44\n      swap2\n      swap1\n      tag_36\n      jump\t// in\n    tag_44:\n        /* \"gist-9818315be422567874850c05f65949d6/contracts/subquest3.sol\":792:862  uint timeElapsed = (block.timestamp - depositTimestemps[_userAddress]) */\n      swap1\n      pop\n        /* \"gist-9818315be422567874850c05f65949d6/contracts/subquest3.sol\":1004:1005  1 */\n      0x01\n        /* \"gist-9818315be422567874850c05f65949d6/contracts/subquest3.sol\":975:999  100 * 365 * 24 * 60 * 60 */\n      0xbbf81e00\n        /* \"gist-9818315be422567874850c05f65949d6/contracts/subquest3.sol\":959:970  timeElapsed */\n      dup3\n        /* \"gist-9818315be422567874850c05f65949d6/contracts/subquest3.sol\":955:956  7 */\n      0x07\n        /* \"gist-9818315be422567874850c05f65949d6/contracts/subquest3.sol\":943:952  principal */\n      dup6\n        /* \"gist-9818315be422567874850c05f65949d6/contracts/subquest3.sol\":943:956  principal * 7 */\n      tag_45\n      swap2\n      swap1\n      tag_46\n      jump\t// in\n    tag_45:\n        /* \"gist-9818315be422567874850c05f65949d6/contracts/subquest3.sol\":943:970  principal * 7 * timeElapsed */\n      tag_47\n      swap2\n      swap1\n      tag_46\n      jump\t// in\n    tag_47:\n        /* \"gist-9818315be422567874850c05f65949d6/contracts/subquest3.sol\":942:1000  (principal * 7 * timeElapsed) / (100 * 365 * 24 * 60 * 60) */\n      tag_48\n      swap2\n      swap1\n      tag_49\n      jump\t// in\n    tag_48:\n        /* \"gist-9818315be422567874850c05f65949d6/contracts/subquest3.sol\":925:934  principal */\n      dup4\n        /* \"gist-9818315be422567874850c05f65949d6/contracts/subquest3.sol\":925:1001  principal + uint((principal * 7 * timeElapsed) / (100 * 365 * 24 * 60 * 60)) */\n      tag_50\n      swap2\n      swap1\n      tag_26\n      jump\t// in\n    tag_50:\n        /* \"gist-9818315be422567874850c05f65949d6/contracts/subquest3.sol\":925:1005  principal + uint((principal * 7 * timeElapsed) / (100 * 365 * 24 * 60 * 60)) + 1 */\n      tag_51\n      swap2\n      swap1\n      tag_26\n      jump\t// in\n    tag_51:\n        /* \"gist-9818315be422567874850c05f65949d6/contracts/subquest3.sol\":918:1005  return principal + uint((principal * 7 * timeElapsed) / (100 * 365 * 24 * 60 * 60)) + 1 */\n      swap3\n      pop\n      pop\n      pop\n        /* \"gist-9818315be422567874850c05f65949d6/contracts/subquest3.sol\":664:1012  function getBalance(address _userAddress) public view returns (uint) {... */\n      swap2\n      swap1\n      pop\n      jump\t// out\n        /* \"#utility.yul\":7:84   */\n    tag_52:\n        /* \"#utility.yul\":44:51   */\n      0x00\n        /* \"#utility.yul\":73:78   */\n      dup2\n        /* \"#utility.yul\":62:78   */\n      swap1\n      pop\n        /* \"#utility.yul\":7:84   */\n      swap2\n      swap1\n      pop\n      jump\t// out\n        /* \"#utility.yul\":90:208   */\n    tag_53:\n        /* \"#utility.yul\":177:201   */\n      tag_71\n        /* \"#utility.yul\":195:200   */\n      dup2\n        /* \"#utility.yul\":177:201   */\n      tag_52\n      jump\t// in\n    tag_71:\n        /* \"#utility.yul\":172:175   */\n      dup3\n        /* \"#utility.yul\":165:202   */\n      mstore\n        /* \"#utility.yul\":90:208   */\n      pop\n      pop\n      jump\t// out\n        /* \"#utility.yul\":214:436   */\n    tag_15:\n        /* \"#utility.yul\":307:311   */\n      0x00\n        /* \"#utility.yul\":345:347   */\n      0x20\n        /* \"#utility.yul\":334:343   */\n      dup3\n        /* \"#utility.yul\":330:348   */\n      add\n        /* \"#utility.yul\":322:348   */\n      swap1\n      pop\n        /* \"#utility.yul\":358:429   */\n      tag_73\n        /* \"#utility.yul\":426:427   */\n      0x00\n        /* \"#utility.yul\":415:424   */\n      dup4\n        /* \"#utility.yul\":411:428   */\n      add\n        /* \"#utility.yul\":402:408   */\n      dup5\n        /* \"#utility.yul\":358:429   */\n      tag_53\n      jump\t// in\n    tag_73:\n        /* \"#utility.yul\":214:436   */\n      swap3\n      swap2\n      pop\n      pop\n      jump\t// out\n        /* \"#utility.yul\":523:640   */\n    tag_55:\n        /* \"#utility.yul\":632:633   */\n      0x00\n        /* \"#utility.yul\":629:630   */\n      dup1\n        /* \"#utility.yul\":622:634   */\n      revert\n        /* \"#utility.yul\":769:895   */\n    tag_57:\n        /* \"#utility.yul\":806:813   */\n      0x00\n        /* \"#utility.yul\":846:888   */\n      0xffffffffffffffffffffffffffffffffffffffff\n        /* \"#utility.yul\":839:844   */\n      dup3\n        /* \"#utility.yul\":835:889   */\n      and\n        /* \"#utility.yul\":824:889   */\n      swap1\n      pop\n        /* \"#utility.yul\":769:895   */\n      swap2\n      swap1\n      pop\n      jump\t// out\n        /* \"#utility.yul\":901:997   */\n    tag_58:\n        /* \"#utility.yul\":938:945   */\n      0x00\n        /* \"#utility.yul\":967:991   */\n      tag_79\n        /* \"#utility.yul\":985:990   */\n      dup3\n        /* \"#utility.yul\":967:991   */\n      tag_57\n      jump\t// in\n    tag_79:\n        /* \"#utility.yul\":956:991   */\n      swap1\n      pop\n        /* \"#utility.yul\":901:997   */\n      swap2\n      swap1\n      pop\n      jump\t// out\n        /* \"#utility.yul\":1003:1125   */\n    tag_59:\n        /* \"#utility.yul\":1076:1100   */\n      tag_81\n        /* \"#utility.yul\":1094:1099   */\n      dup2\n        /* \"#utility.yul\":1076:1100   */\n      tag_58\n      jump\t// in\n    tag_81:\n        /* \"#utility.yul\":1069:1074   */\n      dup2\n        /* \"#utility.yul\":1066:1101   */\n      eq\n        /* \"#utility.yul\":1056:1119   */\n      tag_82\n      jumpi\n        /* \"#utility.yul\":1115:1116   */\n      0x00\n        /* \"#utility.yul\":1112:1113   */\n      dup1\n        /* \"#utility.yul\":1105:1117   */\n      revert\n        /* \"#utility.yul\":1056:1119   */\n    tag_82:\n        /* \"#utility.yul\":1003:1125   */\n      pop\n      jump\t// out\n        /* \"#utility.yul\":1131:1270   */\n    tag_60:\n        /* \"#utility.yul\":1177:1182   */\n      0x00\n        /* \"#utility.yul\":1215:1221   */\n      dup2\n        /* \"#utility.yul\":1202:1222   */\n      calldataload\n        /* \"#utility.yul\":1193:1222   */\n      swap1\n      pop\n        /* \"#utility.yul\":1231:1264   */\n      tag_84\n        /* \"#utility.yul\":1258:1263   */\n      dup2\n        /* \"#utility.yul\":1231:1264   */\n      tag_59\n      jump\t// in\n    tag_84:\n        /* \"#utility.yul\":1131:1270   */\n      swap3\n      swap2\n      pop\n      pop\n      jump\t// out\n        /* \"#utility.yul\":1276:1605   */\n    tag_21:\n        /* \"#utility.yul\":1335:1341   */\n      0x00\n        /* \"#utility.yul\":1384:1386   */\n      0x20\n        /* \"#utility.yul\":1372:1381   */\n      dup3\n        /* \"#utility.yul\":1363:1370   */\n      dup5\n        /* \"#utility.yul\":1359:1382   */\n      sub\n        /* \"#utility.yul\":1355:1387   */\n      slt\n        /* \"#utility.yul\":1352:1471   */\n      iszero\n      tag_86\n      jumpi\n        /* \"#utility.yul\":1390:1469   */\n      tag_87\n      tag_55\n      jump\t// in\n    tag_87:\n        /* \"#utility.yul\":1352:1471   */\n    tag_86:\n        /* \"#utility.yul\":1510:1511   */\n      0x00\n        /* \"#utility.yul\":1535:1588   */\n      tag_88\n        /* \"#utility.yul\":1580:1587   */\n      dup5\n        /* \"#utility.yul\":1571:1577   */\n      dup3\n        /* \"#utility.yul\":1560:1569   */\n      dup6\n        /* \"#utility.yul\":1556:1578   */\n      add\n        /* \"#utility.yul\":1535:1588   */\n      tag_60\n      jump\t// in\n    tag_88:\n        /* \"#utility.yul\":1525:1588   */\n      swap2\n      pop\n        /* \"#utility.yul\":1481:1598   */\n      pop\n        /* \"#utility.yul\":1276:1605   */\n      swap3\n      swap2\n      pop\n      pop\n      jump\t// out\n        /* \"#utility.yul\":1611:1791   */\n    tag_61:\n        /* \"#utility.yul\":1659:1736   */\n      0x4e487b7100000000000000000000000000000000000000000000000000000000\n        /* \"#utility.yul\":1656:1657   */\n      0x00\n        /* \"#utility.yul\":1649:1737   */\n      mstore\n        /* \"#utility.yul\":1756:1760   */\n      0x11\n        /* \"#utility.yul\":1753:1754   */\n      0x04\n        /* \"#utility.yul\":1746:1761   */\n      mstore\n        /* \"#utility.yul\":1780:1784   */\n      0x24\n        /* \"#utility.yul\":1777:1778   */\n      0x00\n        /* \"#utility.yul\":1770:1785   */\n      revert\n        /* \"#utility.yul\":1797:1988   */\n    tag_26:\n        /* \"#utility.yul\":1837:1840   */\n      0x00\n        /* \"#utility.yul\":1856:1876   */\n      tag_91\n        /* \"#utility.yul\":1874:1875   */\n      dup3\n        /* \"#utility.yul\":1856:1876   */\n      tag_52\n      jump\t// in\n    tag_91:\n        /* \"#utility.yul\":1851:1876   */\n      swap2\n      pop\n        /* \"#utility.yul\":1890:1910   */\n      tag_92\n        /* \"#utility.yul\":1908:1909   */\n      dup4\n        /* \"#utility.yul\":1890:1910   */\n      tag_52\n      jump\t// in\n    tag_92:\n        /* \"#utility.yul\":1885:1910   */\n      swap3\n      pop\n        /* \"#utility.yul\":1933:1934   */\n      dup3\n        /* \"#utility.yul\":1930:1931   */\n      dup3\n        /* \"#utility.yul\":1926:1935   */\n      add\n        /* \"#utility.yul\":1919:1935   */\n      swap1\n      pop\n        /* \"#utility.yul\":1954:1957   */\n      dup1\n        /* \"#utility.yul\":1951:1952   */\n      dup3\n        /* \"#utility.yul\":1948:1958   */\n      gt\n        /* \"#utility.yul\":1945:1981   */\n      iszero\n      tag_93\n      jumpi\n        /* \"#utility.yul\":1961:1979   */\n      tag_94\n      tag_61\n      jump\t// in\n    tag_94:\n        /* \"#utility.yul\":1945:1981   */\n    tag_93:\n        /* \"#utility.yul\":1797:1988   */\n      swap3\n      swap2\n      pop\n      pop\n      jump\t// out\n        /* \"#utility.yul\":1994:2163   */\n    tag_62:\n        /* \"#utility.yul\":2078:2089   */\n      0x00\n        /* \"#utility.yul\":2112:2118   */\n      dup3\n        /* \"#utility.yul\":2107:2110   */\n      dup3\n        /* \"#utility.yul\":2100:2119   */\n      mstore\n        /* \"#utility.yul\":2152:2156   */\n      0x20\n        /* \"#utility.yul\":2147:2150   */\n      dup3\n        /* \"#utility.yul\":2143:2157   */\n      add\n        /* \"#utility.yul\":2128:2157   */\n      swap1\n      pop\n        /* \"#utility.yul\":1994:2163   */\n      swap3\n      swap2\n      pop\n      pop\n      jump\t// out\n        /* \"#utility.yul\":2169:2339   */\n    tag_63:\n        /* \"#utility.yul\":2309:2331   */\n      0x696e73756666696369656e742062616c616e6365000000000000000000000000\n        /* \"#utility.yul\":2305:2306   */\n      0x00\n        /* \"#utility.yul\":2297:2303   */\n      dup3\n        /* \"#utility.yul\":2293:2307   */\n      add\n        /* \"#utility.yul\":2286:2332   */\n      mstore\n        /* \"#utility.yul\":2169:2339   */\n      pop\n      jump\t// out\n        /* \"#utility.yul\":2345:2711   */\n    tag_64:\n        /* \"#utility.yul\":2487:2490   */\n      0x00\n        /* \"#utility.yul\":2508:2575   */\n      tag_98\n        /* \"#utility.yul\":2572:2574   */\n      0x14\n        /* \"#utility.yul\":2567:2570   */\n      dup4\n        /* \"#utility.yul\":2508:2575   */\n      tag_62\n      jump\t// in\n    tag_98:\n        /* \"#utility.yul\":2501:2575   */\n      swap2\n      pop\n        /* \"#utility.yul\":2584:2677   */\n      tag_99\n        /* \"#utility.yul\":2673:2676   */\n      dup3\n        /* \"#utility.yul\":2584:2677   */\n      tag_63\n      jump\t// in\n    tag_99:\n        /* \"#utility.yul\":2702:2704   */\n      0x20\n        /* \"#utility.yul\":2697:2700   */\n      dup3\n        /* \"#utility.yul\":2693:2705   */\n      add\n        /* \"#utility.yul\":2686:2705   */\n      swap1\n      pop\n        /* \"#utility.yul\":2345:2711   */\n      swap2\n      swap1\n      pop\n      jump\t// out\n        /* \"#utility.yul\":2717:3136   */\n    tag_31:\n        /* \"#utility.yul\":2883:2887   */\n      0x00\n        /* \"#utility.yul\":2921:2923   */\n      0x20\n        /* \"#utility.yul\":2910:2919   */\n      dup3\n        /* \"#utility.yul\":2906:2924   */\n      add\n        /* \"#utility.yul\":2898:2924   */\n      swap1\n      pop\n        /* \"#utility.yul\":2970:2979   */\n      dup2\n        /* \"#utility.yul\":2964:2968   */\n      dup2\n        /* \"#utility.yul\":2960:2980   */\n      sub\n        /* \"#utility.yul\":2956:2957   */\n      0x00\n        /* \"#utility.yul\":2945:2954   */\n      dup4\n        /* \"#utility.yul\":2941:2958   */\n      add\n        /* \"#utility.yul\":2934:2981   */\n      mstore\n        /* \"#utility.yul\":2998:3129   */\n      tag_101\n        /* \"#utility.yul\":3124:3128   */\n      dup2\n        /* \"#utility.yul\":2998:3129   */\n      tag_64\n      jump\t// in\n    tag_101:\n        /* \"#utility.yul\":2990:3129   */\n      swap1\n      pop\n        /* \"#utility.yul\":2717:3136   */\n      swap2\n      swap1\n      pop\n      jump\t// out\n        /* \"#utility.yul\":3142:3336   */\n    tag_36:\n        /* \"#utility.yul\":3182:3186   */\n      0x00\n        /* \"#utility.yul\":3202:3222   */\n      tag_103\n        /* \"#utility.yul\":3220:3221   */\n      dup3\n        /* \"#utility.yul\":3202:3222   */\n      tag_52\n      jump\t// in\n    tag_103:\n        /* \"#utility.yul\":3197:3222   */\n      swap2\n      pop\n        /* \"#utility.yul\":3236:3256   */\n      tag_104\n        /* \"#utility.yul\":3254:3255   */\n      dup4\n        /* \"#utility.yul\":3236:3256   */\n      tag_52\n      jump\t// in\n    tag_104:\n        /* \"#utility.yul\":3231:3256   */\n      swap3\n      pop\n        /* \"#utility.yul\":3280:3281   */\n      dup3\n        /* \"#utility.yul\":3277:3278   */\n      dup3\n        /* \"#utility.yul\":3273:3282   */\n      sub\n        /* \"#utility.yul\":3265:3282   */\n      swap1\n      pop\n        /* \"#utility.yul\":3304:3305   */\n      dup2\n        /* \"#utility.yul\":3298:3302   */\n      dup2\n        /* \"#utility.yul\":3295:3306   */\n      gt\n        /* \"#utility.yul\":3292:3329   */\n      iszero\n      tag_105\n      jumpi\n        /* \"#utility.yul\":3309:3327   */\n      tag_106\n      tag_61\n      jump\t// in\n    tag_106:\n        /* \"#utility.yul\":3292:3329   */\n    tag_105:\n        /* \"#utility.yul\":3142:3336   */\n      swap3\n      swap2\n      pop\n      pop\n      jump\t// out\n        /* \"#utility.yul\":3342:3522   */\n    tag_65:\n        /* \"#utility.yul\":3482:3514   */\n      0x62616c616e6365206d7573742062652067726561746572207468616e20300000\n        /* \"#utility.yul\":3478:3479   */\n      0x00\n        /* \"#utility.yul\":3470:3476   */\n      dup3\n        /* \"#utility.yul\":3466:3480   */\n      add\n        /* \"#utility.yul\":3459:3515   */\n      mstore\n        /* \"#utility.yul\":3342:3522   */\n      pop\n      jump\t// out\n        /* \"#utility.yul\":3528:3894   */\n    tag_66:\n        /* \"#utility.yul\":3670:3673   */\n      0x00\n        /* \"#utility.yul\":3691:3758   */\n      tag_109\n        /* \"#utility.yul\":3755:3757   */\n      0x1e\n        /* \"#utility.yul\":3750:3753   */\n      dup4\n        /* \"#utility.yul\":3691:3758   */\n      tag_62\n      jump\t// in\n    tag_109:\n        /* \"#utility.yul\":3684:3758   */\n      swap2\n      pop\n        /* \"#utility.yul\":3767:3860   */\n      tag_110\n        /* \"#utility.yul\":3856:3859   */\n      dup3\n        /* \"#utility.yul\":3767:3860   */\n      tag_65\n      jump\t// in\n    tag_110:\n        /* \"#utility.yul\":3885:3887   */\n      0x20\n        /* \"#utility.yul\":3880:3883   */\n      dup3\n        /* \"#utility.yul\":3876:3888   */\n      add\n        /* \"#utility.yul\":3869:3888   */\n      swap1\n      pop\n        /* \"#utility.yul\":3528:3894   */\n      swap2\n      swap1\n      pop\n      jump\t// out\n        /* \"#utility.yul\":3900:4319   */\n    tag_41:\n        /* \"#utility.yul\":4066:4070   */\n      0x00\n        /* \"#utility.yul\":4104:4106   */\n      0x20\n        /* \"#utility.yul\":4093:4102   */\n      dup3\n        /* \"#utility.yul\":4089:4107   */\n      add\n        /* \"#utility.yul\":4081:4107   */\n      swap1\n      pop\n        /* \"#utility.yul\":4153:4162   */\n      dup2\n        /* \"#utility.yul\":4147:4151   */\n      dup2\n        /* \"#utility.yul\":4143:4163   */\n      sub\n        /* \"#utility.yul\":4139:4140   */\n      0x00\n        /* \"#utility.yul\":4128:4137   */\n      dup4\n        /* \"#utility.yul\":4124:4141   */\n      add\n        /* \"#utility.yul\":4117:4164   */\n      mstore\n        /* \"#utility.yul\":4181:4312   */\n      tag_112\n        /* \"#utility.yul\":4307:4311   */\n      dup2\n        /* \"#utility.yul\":4181:4312   */\n      tag_66\n      jump\t// in\n    tag_112:\n        /* \"#utility.yul\":4173:4312   */\n      swap1\n      pop\n        /* \"#utility.yul\":3900:4319   */\n      swap2\n      swap1\n      pop\n      jump\t// out\n        /* \"#utility.yul\":4325:4673   */\n    tag_46:\n        /* \"#utility.yul\":4365:4372   */\n      0x00\n        /* \"#utility.yul\":4388:4408   */\n      tag_114\n        /* \"#utility.yul\":4406:4407   */\n      dup3\n        /* \"#utility.yul\":4388:4408   */\n      tag_52\n      jump\t// in\n    tag_114:\n        /* \"#utility.yul\":4383:4408   */\n      swap2\n      pop\n        /* \"#utility.yul\":4422:4442   */\n      tag_115\n        /* \"#utility.yul\":4440:4441   */\n      dup4\n        /* \"#utility.yul\":4422:4442   */\n      tag_52\n      jump\t// in\n    tag_115:\n        /* \"#utility.yul\":4417:4442   */\n      swap3\n      pop\n        /* \"#utility.yul\":4610:4611   */\n      dup2\n        /* \"#utility.yul\":4542:4608   */\n      0xffffffffffffffffffffffffffffffffffffffffffffffffffffffffffffffff\n        /* \"#utility.yul\":4538:4612   */\n      div\n        /* \"#utility.yul\":4535:4536   */\n      dup4\n        /* \"#utility.yul\":4532:4613   */\n      gt\n        /* \"#utility.yul\":4527:4528   */\n      dup3\n        /* \"#utility.yul\":4520:4529   */\n      iszero\n        /* \"#utility.yul\":4513:4530   */\n      iszero\n        /* \"#utility.yul\":4509:4614   */\n      and\n        /* \"#utility.yul\":4506:4637   */\n      iszero\n      tag_116\n      jumpi\n        /* \"#utility.yul\":4617:4635   */\n      tag_117\n      tag_61\n      jump\t// in\n    tag_117:\n        /* \"#utility.yul\":4506:4637   */\n    tag_116:\n        /* \"#utility.yul\":4665:4666   */\n      dup3\n        /* \"#utility.yul\":4662:4663   */\n      dup3\n        /* \"#utility.yul\":4658:4667   */\n      mul\n        /* \"#utility.yul\":4647:4667   */\n      swap1\n      pop\n        /* \"#utility.yul\":4325:4673   */\n      swap3\n      swap2\n      pop\n      pop\n      jump\t// out\n        /* \"#utility.yul\":4679:4859   */\n    tag_67:\n        /* \"#utility.yul\":4727:4804   */\n      0x4e487b7100000000000000000000000000000000000000000000000000000000\n        /* \"#utility.yul\":4724:4725   */\n      0x00\n        /* \"#utility.yul\":4717:4805   */\n      mstore\n        /* \"#utility.yul\":4824:4828   */\n      0x12\n        /* \"#utility.yul\":4821:4822   */\n      0x04\n        /* \"#utility.yul\":4814:4829   */\n      mstore\n        /* \"#utility.yul\":4848:4852   */\n      0x24\n        /* \"#utility.yul\":4845:4846   */\n      0x00\n        /* \"#utility.yul\":4838:4853   */\n      revert\n        /* \"#utility.yul\":4865:5050   */\n    tag_49:\n        /* \"#utility.yul\":4905:4906   */\n      0x00\n        /* \"#utility.yul\":4922:4942   */\n      tag_120\n        /* \"#utility.yul\":4940:4941   */\n      dup3\n        /* \"#utility.yul\":4922:4942   */\n      tag_52\n      jump\t// in\n    tag_120:\n        /* \"#utility.yul\":4917:4942   */\n      swap2\n      pop\n        /* \"#utility.yul\":4956:4976   */\n      tag_121\n        /* \"#utility.yul\":4974:4975   */\n      dup4\n        /* \"#utility.yul\":4956:4976   */\n      tag_52\n      jump\t// in\n    tag_121:\n        /* \"#utility.yul\":4951:4976   */\n      swap3\n      pop\n        /* \"#utility.yul\":4995:4996   */\n      dup3\n        /* \"#utility.yul\":4985:5020   */\n      tag_122\n      jumpi\n        /* \"#utility.yul\":5000:5018   */\n      tag_123\n      tag_67\n      jump\t// in\n    tag_123:\n        /* \"#utility.yul\":4985:5020   */\n    tag_122:\n        /* \"#utility.yul\":5042:5043   */\n      dup3\n        /* \"#utility.yul\":5039:5040   */\n      dup3\n        /* \"#utility.yul\":5035:5044   */\n      div\n        /* \"#utility.yul\":5030:5044   */\n      swap1\n      pop\n        /* \"#utility.yul\":4865:5050   */\n      swap3\n      swap2\n      pop\n      pop\n      jump\t// out\n\n    auxdata: 0xa2646970667358221220cfbc50b8d7506cda4ccdcc38b5d8609f0992bf7ace167b226106f65aecfa7f5564736f6c63430008100033\n}\n",
				"bytecode": {
					"linkReferences": {},
					"object": "60806040526000805534801561001457600080fd5b506106ed806100246000396000f3fe60806040526004361061004a5760003560e01c80631834ef4e1461004f5780633ccfd60b146100595780636f9fb98a14610063578063b163cc381461008e578063f8b2cb4f14610098575b600080fd5b6100576100d5565b005b6100616100ef565b005b34801561006f57600080fd5b506100786101f0565b60405161008591906103d2565b60405180910390f35b6100966101f9565b005b3480156100a457600080fd5b506100bf60048036038101906100ba9190610450565b6102de565b6040516100cc91906103d2565b60405180910390f35b346000808282546100e691906104ac565b92505081905550565b346100f9336102de565b101561013a576040517f08c379a00000000000000000000000000000000000000000000000000000000081526004016101319061053d565b60405180910390fd5b6000339050600061014a336102de565b90508173ffffffffffffffffffffffffffffffffffffffff166108fc829081150290604051600060405180830381858888f19350505050158015610192573d6000803e3d6000fd5b50806000546101a1919061055d565b6000819055506000600160008473ffffffffffffffffffffffffffffffffffffffff1673ffffffffffffffffffffffffffffffffffffffff168152602001908152602001600020819055505050565b60008054905090565b6000341161023c576040517f08c379a0000000000000000000000000000000000000000000000000000000008152600401610233906105dd565b60405180910390fd5b34600160003373ffffffffffffffffffffffffffffffffffffffff1673ffffffffffffffffffffffffffffffffffffffff168152602001908152602001600020819055503460008082825461029191906104ac565b9250508190555042600260003373ffffffffffffffffffffffffffffffffffffffff1673ffffffffffffffffffffffffffffffffffffffff16815260200190815260200160002081905550565b600080600160008473ffffffffffffffffffffffffffffffffffffffff1673ffffffffffffffffffffffffffffffffffffffff1681526020019081526020016000205490506000600260008573ffffffffffffffffffffffffffffffffffffffff1673ffffffffffffffffffffffffffffffffffffffff1681526020019081526020016000205442610370919061055d565b9050600163bbf81e008260078561038791906105fd565b61039191906105fd565b61039b9190610686565b836103a691906104ac565b6103b091906104ac565b92505050919050565b6000819050919050565b6103cc816103b9565b82525050565b60006020820190506103e760008301846103c3565b92915050565b600080fd5b600073ffffffffffffffffffffffffffffffffffffffff82169050919050565b600061041d826103f2565b9050919050565b61042d81610412565b811461043857600080fd5b50565b60008135905061044a81610424565b92915050565b600060208284031215610466576104656103ed565b5b60006104748482850161043b565b91505092915050565b7f4e487b7100000000000000000000000000000000000000000000000000000000600052601160045260246000fd5b60006104b7826103b9565b91506104c2836103b9565b92508282019050808211156104da576104d961047d565b5b92915050565b600082825260208201905092915050565b7f696e73756666696369656e742062616c616e6365000000000000000000000000600082015250565b60006105276014836104e0565b9150610532826104f1565b602082019050919050565b600060208201905081810360008301526105568161051a565b9050919050565b6000610568826103b9565b9150610573836103b9565b925082820390508181111561058b5761058a61047d565b5b92915050565b7f62616c616e6365206d7573742062652067726561746572207468616e20300000600082015250565b60006105c7601e836104e0565b91506105d282610591565b602082019050919050565b600060208201905081810360008301526105f6816105ba565b9050919050565b6000610608826103b9565b9150610613836103b9565b9250817fffffffffffffffffffffffffffffffffffffffffffffffffffffffffffffffff048311821515161561064c5761064b61047d565b5b828202905092915050565b7f4e487b7100000000000000000000000000000000000000000000000000000000600052601260045260246000fd5b6000610691826103b9565b915061069c836103b9565b9250826106ac576106ab610657565b5b82820490509291505056fea2646970667358221220cfbc50b8d7506cda4ccdcc38b5d8609f0992bf7ace167b226106f65aecfa7f5564736f6c63430008100033",
					"opcodes": "PUSH1 0x80 PUSH1 0x40 MSTORE PUSH1 0x0 DUP1 SSTORE CALLVALUE DUP1 ISZERO PUSH2 0x14 JUMPI PUSH1 0x0 DUP1 REVERT JUMPDEST POP PUSH2 0x6ED DUP1 PUSH2 0x24 PUSH1 0x0 CODECOPY PUSH1 0x0 RETURN INVALID PUSH1 0x80 PUSH1 0x40 MSTORE PUSH1 0x4 CALLDATASIZE LT PUSH2 0x4A JUMPI PUSH1 0x0 CALLDATALOAD PUSH1 0xE0 SHR DUP1 PUSH4 0x1834EF4E EQ PUSH2 0x4F JUMPI DUP1 PUSH4 0x3CCFD60B EQ PUSH2 0x59 JUMPI DUP1 PUSH4 0x6F9FB98A EQ PUSH2 0x63 JUMPI DUP1 PUSH4 0xB163CC38 EQ PUSH2 0x8E JUMPI DUP1 PUSH4 0xF8B2CB4F EQ PUSH2 0x98 JUMPI JUMPDEST PUSH1 0x0 DUP1 REVERT JUMPDEST PUSH2 0x57 PUSH2 0xD5 JUMP JUMPDEST STOP JUMPDEST PUSH2 0x61 PUSH2 0xEF JUMP JUMPDEST STOP JUMPDEST CALLVALUE DUP1 ISZERO PUSH2 0x6F JUMPI PUSH1 0x0 DUP1 REVERT JUMPDEST POP PUSH2 0x78 PUSH2 0x1F0 JUMP JUMPDEST PUSH1 0x40 MLOAD PUSH2 0x85 SWAP2 SWAP1 PUSH2 0x3D2 JUMP JUMPDEST PUSH1 0x40 MLOAD DUP1 SWAP2 SUB SWAP1 RETURN JUMPDEST PUSH2 0x96 PUSH2 0x1F9 JUMP JUMPDEST STOP JUMPDEST CALLVALUE DUP1 ISZERO PUSH2 0xA4 JUMPI PUSH1 0x0 DUP1 REVERT JUMPDEST POP PUSH2 0xBF PUSH1 0x4 DUP1 CALLDATASIZE SUB DUP2 ADD SWAP1 PUSH2 0xBA SWAP2 SWAP1 PUSH2 0x450 JUMP JUMPDEST PUSH2 0x2DE JUMP JUMPDEST PUSH1 0x40 MLOAD PUSH2 0xCC SWAP2 SWAP1 PUSH2 0x3D2 JUMP JUMPDEST PUSH1 0x40 MLOAD DUP1 SWAP2 SUB SWAP1 RETURN JUMPDEST CALLVALUE PUSH1 0x0 DUP1 DUP3 DUP3 SLOAD PUSH2 0xE6 SWAP2 SWAP1 PUSH2 0x4AC JUMP JUMPDEST SWAP3 POP POP DUP2 SWAP1 SSTORE POP JUMP JUMPDEST CALLVALUE PUSH2 0xF9 CALLER PUSH2 0x2DE JUMP JUMPDEST LT ISZERO PUSH2 0x13A JUMPI PUSH1 0x40 MLOAD PUSH32 0x8C379A000000000000000000000000000000000000000000000000000000000 DUP2 MSTORE PUSH1 0x4 ADD PUSH2 0x131 SWAP1 PUSH2 0x53D JUMP JUMPDEST PUSH1 0x40 MLOAD DUP1 SWAP2 SUB SWAP1 REVERT JUMPDEST PUSH1 0x0 CALLER SWAP1 POP PUSH1 0x0 PUSH2 0x14A CALLER PUSH2 0x2DE JUMP JUMPDEST SWAP1 POP DUP2 PUSH20 0xFFFFFFFFFFFFFFFFFFFFFFFFFFFFFFFFFFFFFFFF AND PUSH2 0x8FC DUP3 SWAP1 DUP2 ISZERO MUL SWAP1 PUSH1 0x40 MLOAD PUSH1 0x0 PUSH1 0x40 MLOAD DUP1 DUP4 SUB DUP2 DUP6 DUP9 DUP9 CALL SWAP4 POP POP POP POP ISZERO DUP1 ISZERO PUSH2 0x192 JUMPI RETURNDATASIZE PUSH1 0x0 DUP1 RETURNDATACOPY RETURNDATASIZE PUSH1 0x0 REVERT JUMPDEST POP DUP1 PUSH1 0x0 SLOAD PUSH2 0x1A1 SWAP2 SWAP1 PUSH2 0x55D JUMP JUMPDEST PUSH1 0x0 DUP2 SWAP1 SSTORE POP PUSH1 0x0 PUSH1 0x1 PUSH1 0x0 DUP5 PUSH20 0xFFFFFFFFFFFFFFFFFFFFFFFFFFFFFFFFFFFFFFFF AND PUSH20 0xFFFFFFFFFFFFFFFFFFFFFFFFFFFFFFFFFFFFFFFF AND DUP2 MSTORE PUSH1 0x20 ADD SWAP1 DUP2 MSTORE PUSH1 0x20 ADD PUSH1 0x0 KECCAK256 DUP2 SWAP1 SSTORE POP POP POP JUMP JUMPDEST PUSH1 0x0 DUP1 SLOAD SWAP1 POP SWAP1 JUMP JUMPDEST PUSH1 0x0 CALLVALUE GT PUSH2 0x23C JUMPI PUSH1 0x40 MLOAD PUSH32 0x8C379A000000000000000000000000000000000000000000000000000000000 DUP2 MSTORE PUSH1 0x4 ADD PUSH2 0x233 SWAP1 PUSH2 0x5DD JUMP JUMPDEST PUSH1 0x40 MLOAD DUP1 SWAP2 SUB SWAP1 REVERT JUMPDEST CALLVALUE PUSH1 0x1 PUSH1 0x0 CALLER PUSH20 0xFFFFFFFFFFFFFFFFFFFFFFFFFFFFFFFFFFFFFFFF AND PUSH20 0xFFFFFFFFFFFFFFFFFFFFFFFFFFFFFFFFFFFFFFFF AND DUP2 MSTORE PUSH1 0x20 ADD SWAP1 DUP2 MSTORE PUSH1 0x20 ADD PUSH1 0x0 KECCAK256 DUP2 SWAP1 SSTORE POP CALLVALUE PUSH1 0x0 DUP1 DUP3 DUP3 SLOAD PUSH2 0x291 SWAP2 SWAP1 PUSH2 0x4AC JUMP JUMPDEST SWAP3 POP POP DUP2 SWAP1 SSTORE POP TIMESTAMP PUSH1 0x2 PUSH1 0x0 CALLER PUSH20 0xFFFFFFFFFFFFFFFFFFFFFFFFFFFFFFFFFFFFFFFF AND PUSH20 0xFFFFFFFFFFFFFFFFFFFFFFFFFFFFFFFFFFFFFFFF AND DUP2 MSTORE PUSH1 0x20 ADD SWAP1 DUP2 MSTORE PUSH1 0x20 ADD PUSH1 0x0 KECCAK256 DUP2 SWAP1 SSTORE POP JUMP JUMPDEST PUSH1 0x0 DUP1 PUSH1 0x1 PUSH1 0x0 DUP5 PUSH20 0xFFFFFFFFFFFFFFFFFFFFFFFFFFFFFFFFFFFFFFFF AND PUSH20 0xFFFFFFFFFFFFFFFFFFFFFFFFFFFFFFFFFFFFFFFF AND DUP2 MSTORE PUSH1 0x20 ADD SWAP1 DUP2 MSTORE PUSH1 0x20 ADD PUSH1 0x0 KECCAK256 SLOAD SWAP1 POP PUSH1 0x0 PUSH1 0x2 PUSH1 0x0 DUP6 PUSH20 0xFFFFFFFFFFFFFFFFFFFFFFFFFFFFFFFFFFFFFFFF AND PUSH20 0xFFFFFFFFFFFFFFFFFFFFFFFFFFFFFFFFFFFFFFFF AND DUP2 MSTORE PUSH1 0x20 ADD SWAP1 DUP2 MSTORE PUSH1 0x20 ADD PUSH1 0x0 KECCAK256 SLOAD TIMESTAMP PUSH2 0x370 SWAP2 SWAP1 PUSH2 0x55D JUMP JUMPDEST SWAP1 POP PUSH1 0x1 PUSH4 0xBBF81E00 DUP3 PUSH1 0x7 DUP6 PUSH2 0x387 SWAP2 SWAP1 PUSH2 0x5FD JUMP JUMPDEST PUSH2 0x391 SWAP2 SWAP1 PUSH2 0x5FD JUMP JUMPDEST PUSH2 0x39B SWAP2 SWAP1 PUSH2 0x686 JUMP JUMPDEST DUP4 PUSH2 0x3A6 SWAP2 SWAP1 PUSH2 0x4AC JUMP JUMPDEST PUSH2 0x3B0 SWAP2 SWAP1 PUSH2 0x4AC JUMP JUMPDEST SWAP3 POP POP POP SWAP2 SWAP1 POP JUMP JUMPDEST PUSH1 0x0 DUP2 SWAP1 POP SWAP2 SWAP1 POP JUMP JUMPDEST PUSH2 0x3CC DUP2 PUSH2 0x3B9 JUMP JUMPDEST DUP3 MSTORE POP POP JUMP JUMPDEST PUSH1 0x0 PUSH1 0x20 DUP3 ADD SWAP1 POP PUSH2 0x3E7 PUSH1 0x0 DUP4 ADD DUP5 PUSH2 0x3C3 JUMP JUMPDEST SWAP3 SWAP2 POP POP JUMP JUMPDEST PUSH1 0x0 DUP1 REVERT JUMPDEST PUSH1 0x0 PUSH20 0xFFFFFFFFFFFFFFFFFFFFFFFFFFFFFFFFFFFFFFFF DUP3 AND SWAP1 POP SWAP2 SWAP1 POP JUMP JUMPDEST PUSH1 0x0 PUSH2 0x41D DUP3 PUSH2 0x3F2 JUMP JUMPDEST SWAP1 POP SWAP2 SWAP1 POP JUMP JUMPDEST PUSH2 0x42D DUP2 PUSH2 0x412 JUMP JUMPDEST DUP2 EQ PUSH2 0x438 JUMPI PUSH1 0x0 DUP1 REVERT JUMPDEST POP JUMP JUMPDEST PUSH1 0x0 DUP2 CALLDATALOAD SWAP1 POP PUSH2 0x44A DUP2 PUSH2 0x424 JUMP JUMPDEST SWAP3 SWAP2 POP POP JUMP JUMPDEST PUSH1 0x0 PUSH1 0x20 DUP3 DUP5 SUB SLT ISZERO PUSH2 0x466 JUMPI PUSH2 0x465 PUSH2 0x3ED JUMP JUMPDEST JUMPDEST PUSH1 0x0 PUSH2 0x474 DUP5 DUP3 DUP6 ADD PUSH2 0x43B JUMP JUMPDEST SWAP2 POP POP SWAP3 SWAP2 POP POP JUMP JUMPDEST PUSH32 0x4E487B7100000000000000000000000000000000000000000000000000000000 PUSH1 0x0 MSTORE PUSH1 0x11 PUSH1 0x4 MSTORE PUSH1 0x24 PUSH1 0x0 REVERT JUMPDEST PUSH1 0x0 PUSH2 0x4B7 DUP3 PUSH2 0x3B9 JUMP JUMPDEST SWAP2 POP PUSH2 0x4C2 DUP4 PUSH2 0x3B9 JUMP JUMPDEST SWAP3 POP DUP3 DUP3 ADD SWAP1 POP DUP1 DUP3 GT ISZERO PUSH2 0x4DA JUMPI PUSH2 0x4D9 PUSH2 0x47D JUMP JUMPDEST JUMPDEST SWAP3 SWAP2 POP POP JUMP JUMPDEST PUSH1 0x0 DUP3 DUP3 MSTORE PUSH1 0x20 DUP3 ADD SWAP1 POP SWAP3 SWAP2 POP POP JUMP JUMPDEST PUSH32 0x696E73756666696369656E742062616C616E6365000000000000000000000000 PUSH1 0x0 DUP3 ADD MSTORE POP JUMP JUMPDEST PUSH1 0x0 PUSH2 0x527 PUSH1 0x14 DUP4 PUSH2 0x4E0 JUMP JUMPDEST SWAP2 POP PUSH2 0x532 DUP3 PUSH2 0x4F1 JUMP JUMPDEST PUSH1 0x20 DUP3 ADD SWAP1 POP SWAP2 SWAP1 POP JUMP JUMPDEST PUSH1 0x0 PUSH1 0x20 DUP3 ADD SWAP1 POP DUP2 DUP2 SUB PUSH1 0x0 DUP4 ADD MSTORE PUSH2 0x556 DUP2 PUSH2 0x51A JUMP JUMPDEST SWAP1 POP SWAP2 SWAP1 POP JUMP JUMPDEST PUSH1 0x0 PUSH2 0x568 DUP3 PUSH2 0x3B9 JUMP JUMPDEST SWAP2 POP PUSH2 0x573 DUP4 PUSH2 0x3B9 JUMP JUMPDEST SWAP3 POP DUP3 DUP3 SUB SWAP1 POP DUP2 DUP2 GT ISZERO PUSH2 0x58B JUMPI PUSH2 0x58A PUSH2 0x47D JUMP JUMPDEST JUMPDEST SWAP3 SWAP2 POP POP JUMP JUMPDEST PUSH32 0x62616C616E6365206D7573742062652067726561746572207468616E20300000 PUSH1 0x0 DUP3 ADD MSTORE POP JUMP JUMPDEST PUSH1 0x0 PUSH2 0x5C7 PUSH1 0x1E DUP4 PUSH2 0x4E0 JUMP JUMPDEST SWAP2 POP PUSH2 0x5D2 DUP3 PUSH2 0x591 JUMP JUMPDEST PUSH1 0x20 DUP3 ADD SWAP1 POP SWAP2 SWAP1 POP JUMP JUMPDEST PUSH1 0x0 PUSH1 0x20 DUP3 ADD SWAP1 POP DUP2 DUP2 SUB PUSH1 0x0 DUP4 ADD MSTORE PUSH2 0x5F6 DUP2 PUSH2 0x5BA JUMP JUMPDEST SWAP1 POP SWAP2 SWAP1 POP JUMP JUMPDEST PUSH1 0x0 PUSH2 0x608 DUP3 PUSH2 0x3B9 JUMP JUMPDEST SWAP2 POP PUSH2 0x613 DUP4 PUSH2 0x3B9 JUMP JUMPDEST SWAP3 POP DUP2 PUSH32 0xFFFFFFFFFFFFFFFFFFFFFFFFFFFFFFFFFFFFFFFFFFFFFFFFFFFFFFFFFFFFFFFF DIV DUP4 GT DUP3 ISZERO ISZERO AND ISZERO PUSH2 0x64C JUMPI PUSH2 0x64B PUSH2 0x47D JUMP JUMPDEST JUMPDEST DUP3 DUP3 MUL SWAP1 POP SWAP3 SWAP2 POP POP JUMP JUMPDEST PUSH32 0x4E487B7100000000000000000000000000000000000000000000000000000000 PUSH1 0x0 MSTORE PUSH1 0x12 PUSH1 0x4 MSTORE PUSH1 0x24 PUSH1 0x0 REVERT JUMPDEST PUSH1 0x0 PUSH2 0x691 DUP3 PUSH2 0x3B9 JUMP JUMPDEST SWAP2 POP PUSH2 0x69C DUP4 PUSH2 0x3B9 JUMP JUMPDEST SWAP3 POP DUP3 PUSH2 0x6AC JUMPI PUSH2 0x6AB PUSH2 0x657 JUMP JUMPDEST JUMPDEST DUP3 DUP3 DIV SWAP1 POP SWAP3 SWAP2 POP POP JUMP INVALID LOG2 PUSH5 0x6970667358 0x22 SLT KECCAK256 0xCF 0xBC POP 0xB8 0xD7 POP PUSH13 0xDA4CCDCC38B5D8609F0992BF7A 0xCE AND PUSH28 0x226106F65AECFA7F5564736F6C634300081000330000000000000000 "
				},
				"gasEstimates": {
					"creation": {
						"codeDepositCost": "354600",
						"executionCost": "5399",
						"totalCost": "359999"
					},
					"external": {
						"addBalance()": "infinite",
						"addMoneyToContract()": "infinite",
						"getBalance(address)": "infinite",
						"getContractBalance()": "2459",
						"withdraw()": "infinite"
					}
				},
				"methodIdentifiers": {
					"addBalance()": "b163cc38",
					"addMoneyToContract()": "1834ef4e",
					"getBalance(address)": "f8b2cb4f",
					"getContractBalance()": "6f9fb98a",
					"withdraw()": "3ccfd60b"
				}
			},
			"storageLayout": {
				"storage": [
					{
						"astId": 4,
						"contract": "gist-9818315be422567874850c05f65949d6/contracts/subquest3.sol:SmartBankAccount",
						"label": "totalContractBalance",
						"offset": 0,
						"slot": "0",
						"type": "t_uint256"
					},
					{
						"astId": 16,
						"contract": "gist-9818315be422567874850c05f65949d6/contracts/subquest3.sol:SmartBankAccount",
						"label": "balances",
						"offset": 0,
						"slot": "1",
						"type": "t_mapping(t_address,t_uint256)"
					},
					{
						"astId": 20,
						"contract": "gist-9818315be422567874850c05f65949d6/contracts/subquest3.sol:SmartBankAccount",
						"label": "depositTimestemps",
						"offset": 0,
						"slot": "2",
						"type": "t_mapping(t_address,t_uint256)"
					}
				],
				"types": {
					"t_address": {
						"encoding": "inplace",
						"label": "address",
						"numberOfBytes": "20"
					},
					"t_mapping(t_address,t_uint256)": {
						"encoding": "mapping",
						"key": "t_address",
						"label": "mapping(address => uint256)",
						"numberOfBytes": "32",
						"value": "t_uint256"
					},
					"t_uint256": {
						"encoding": "inplace",
						"label": "uint256",
						"numberOfBytes": "32"
					}
				}
			},
			"userdoc": {
				"kind": "user",
				"methods": {},
				"version": 1
			}
		}
	}
}